:1000030012007712004EE4FF1200867F0112008671
:100013007F021200867F031200867F041200867F10
:10002300051200867F061200867F0712008680D69F
:0D0086008F0812009FAF0812006302009F58
:10006300EF4488F5C500000000E5C530E4FB53C547
:04007300EFAFC62203
:0F00770075985A758920758BFB758DFBD28E227B
:10004E007592FF7591FF7590FFE4F5C675C5807FBB
:05005E0002FE02003368
:08009F003099FDC2998F9922EE
:10003300EF1FAA0670011E4A60107C137D88ED1D18
:0A004300AA0470011C4A60E880F472
:01004D002290
:0300000002009368
:0C009300787FE4F6D8FD758108020003B8
:00000001FF
