:020000040800F2
:10000000480400209D01000829090008ED080008A7
:1000100025090008A5050008DB0E00080000000007
:10002000000000000000000000000000210B00089C
:10003000A905000800000000B9090008390C0008F3
:10004000B7010008B7010008B7010008B7010008B0
:10005000B7010008B7010008B7010008B7010008A0
:10006000B7010008B7010008B7010008B701000890
:10007000B7010008B7010008B7010008B701000880
:10008000B7010008B7010008B7010008B701000870
:10009000B7010008B7010008B7010008AD05000866
:1000A000B7010008B7010008B7010008B701000850
:1000B000B7010008B10C0008B7010008B70100083B
:1000C000B7010008B7010008B7010008B701000830
:1000D000B7010008FD0C0008B7010008B7010008CF
:1000E000B7010008B7010008B7010008B701000810
:1000F000B7010008B7010008B7010008B701000800
:10010000B7010008B7010008B7010008B7010008EF
:10011000B7010008B7010008B7010008B7010008DF
:10012000B7010008B7010008B7010008B7010008CF
:10013000B7010008B7010008B7010008B7010008BF
:10014000B7010008B7010008B7010008B7010008AF
:10015000B7010008B7010008B7010008B70100089F
:10016000B7010008B7010008B7010008B70100088F
:10017000B7010008B7010008B7010008B70100087F
:10018000B7010008B7010008DFF80CD000F044F90F
:1001900000480047850F00084804002006488047B3
:1001A00006480047FEE7FEE7FEE7FEE7FEE7FEE75C
:1001B000FEE7FEE7FEE7FEE7490C000889010008BC
:1001C0002DE9F04D81EA030404F0004B21F00045D5
:1001D00014464FF0000A23F0004150EA050220D0F7
:1001E00054EA01021DD0C5F30A570246C5F31303B2
:1001F000C1F31300C1F30A5640F4801543F4801391
:10020000A7EB0608101BD64608F2FD3873EB050075
:1002100002D308F1010801E092185B41B8F1000F28
:1002200003DA00200146BDE8F08D00204FF4801174
:10023000064684460EE0171B73EB050705D3121B19
:1002400063EB050306434CEA010C49084FEA300012
:1002500092185B4150EA0107EDD152EA030012D037
:1002600082EA040083EA0501084305D0101BAB4174
:1002700006D20122002306E000224FF0004302E0F4
:100280006FF0010253101AEB06004CEB085110EB13
:100290000A0041EB0B01BDE8F04D00F060B80EB56F
:1002A00040F2334102910021CDE900110A460B468C
:1002B00000F064F803B000BD01F0004330B421F059
:1002C000004150EA010206D00A0DA2F56072C1F3A6
:1002D0001301002A02DC30BC00207047440F44EABE
:1002E000C104C100E01830BC00EBC250AFF3008085
:1002F0000029A8BF7047401C490008BF20F001003A
:10030000704710B4B0FA80FC00FA0CF050EA010417
:1003100004BF10BC704749B1CCF1200421FA04F4A9
:1003200011FA0CF118BF012121430843A3EB0C0182
:10033000CB1D4FEA00614FEA102042BF002010BCE5
:10034000704700EBC35010440029A4BF10BC704795
:10035000401C490008BF20F0010010BC704710B5D8
:10036000141E73F1000408DA401C41F100019218D8
:100370005B411A4301D120F0010010BD2DE9F04D81
:1003800092469B4611B1B1FA81F202E0B0FA80F2D6
:100390002032904600F052F804460F4640EA0A0028
:1003A00041EA0B0153465A46084313D0114653EA1B
:1003B000010019D0C8F14002504600F04EF8054641
:1003C0000E4650465946424600F038F8084305D0DC
:1003D000012004E020463946BDE8F08D00200543A9
:1003E00046EAE0762C4337430A986305E40AA0EB1B
:1003F00008000022FD0A44EA47540A3002D50020D2
:100400000146E9E7010510196941DDE908450019D0
:100410006941BDE8F04DA2E7064C074D06E0E068F3
:1004200040F0010394E8070098471034AC42F6D33B
:10043000FFF7AEFE0016000820160008202A04DB95
:10044000203A00FA02F1002070479140C2F12003E7
:1004500020FA03F3194390407047202A04DB203A26
:1004600021FA02F00021704721FA02F3D040C2F1D4
:10047000200291400843194670472DE9FC4180460F
:100480000D46C5F3074030B1012806D0022806D03A
:10049000032808D105E0002405E0012403E002243C
:1004A00001E0032400BF00BFC5F3072010B10128FD
:1004B00004D101E0002701E0012700BF00BFE8B23E
:1004C00020B1012804D0022806D103E0002603E071
:1004D000012601E0022600BF00BF404600F014F8EC
:1004E000D8F8040000908DF804408DF806700320C1
:1004F0008DF805008DF807606946D8F8000000F017
:1005000065F8BDE8FC81000070B505461C49286807
:10051000884201D101242EE01A492868884201D17D
:10052000022428E018492868884201D1042422E0E6
:1005300016492868884201D108241CE0144928681B
:10054000884201D1102416E012492868884201D15E
:10055000202410E010492868884201D140240AE094
:100560000E492868884201D1802404E00C4928689B
:10057000884200D184150121204600F01FFA70BD89
:10058000000002400004024000080240000C02404B
:10059000001002400014024000180240001C0240FB
:1005A0000020024000BFFEE77047000010B50120A8
:1005B00002490870402000F003F810BD340000200C
:1005C0000149086070470000143C0140F0B50A463C
:1005D00000210023002400BF3DE0012505FA01F3BE
:1005E000156805EA03049C4234D105684F000326D0
:1005F000BE40B543056015794E00B54006683543E9
:1006000005601579012D02D01579022D16D1856866
:100610004F000326BE40B543856055794E00B54076
:10062000866835438560456801268E40B543456040
:10063000456896798E40B6B235434560C5684F002F
:100640000326BE40B543C560D5794E00B540C668A7
:100650003543C560491C1029BFD3F0BDF0B5002358
:1006600000244D07ED0E02FA05F3CE1000F120052F
:1006700055F826504E07F70E0F26BE40B543CF1053
:1006800000F1200646F82750CE1000F1200555F85D
:10069000265045EA0304CE1000F1200545F8264017
:1006A000F0BD01464A68B2F5807F3BD012DC102ACB
:1006B00030D008DC012A25D0022A25D0042A25D0F2
:1006C000082A3FD124E0202A26D0402A26D0802A9A
:1006D00038D125E0B2F5805F2CD009DCB2F5007F7F
:1006E00022D0B2F5806F21D0B2F5006F2AD11FE081
:1006F000B2F5005F20D0B2F5804F1FD0B2F5004FA9
:1007000020D11DE000201DE001201BE0022019E0A7
:10071000032017E0042015E0052013E0062011E077
:1007200007200FE008200DE009200BE00A2009E077
:100730000B2007E00C2005E00D2003E00E2001E077
:100740000F2000BF00BF704770B504460D4620461D
:10075000FFF7A7FF06462A4631462068FFF77EFFCF
:1007600070BD418370470183704701464A68B2F506
:10077000807F3BD012DC102A30D008DC012A25D043
:10078000022A25D0042A25D0082A3FD124E0202A95
:1007900026D0402A26D0802A38D125E0B2F5805FC5
:1007A0002CD009DCB2F5007F22D0B2F5806F21D0C9
:1007B000B2F5006F2AD11FE0B2F5005F20D0B2F58C
:1007C000804F1FD0B2F5004F20D11DE000201DE06A
:1007D00001201BE0022019E0032017E0042015E0AF
:1007E000052013E0062011E007200FE008200DE0AF
:1007F00009200BE00A2009E00B2007E00C2005E0AF
:100800000D2003E00E2001E00F2000BF00BF704765
:1008100001461B4B0A689A4201D100202EE0194B79
:100820000A689A4201D1012028E0174B0A689A42CF
:1008300001D1022022E0154B0A689A4201D103201F
:100840001CE0134B0A689A4201D1042016E0114BB8
:100850000A689A4201D1052010E00F4B0A689A42BB
:1008600001D106200AE00D4B0A689A4201D1072007
:1008700004E00B4B0A689A4200D108207047000040
:10088000000002400004024000080240000C024048
:10089000001002400014024000180240001C0240F8
:1008A0000020024010B52DED048B0C4800F011FA29
:1008B00000EB800000EB001044002046FFF7EFFC47
:1008C0009FED070B53EC102BFFF77AFCFFF7F4FCBE
:1008D00005498860BDEC048B10BD00000004004099
:1008E00000000000000069403800002000BFFEE763
:1008F00010B54FF001110348FFF7BFFD0120024979
:10090000086010BD48130008A482424203480068F2
:10091000C0430349C1F8A40270470000A4824242C8
:100920000080424200BFFEE77047000070B5002122
:1009300000230F22C4781CB3174C246804F4E0642D
:10094000C4F5E064C4F30721C1F10404E3B20A4131
:1009500044789C40E1B28478144021430C07210E76
:100960000E4C05786155047804F01F050124AC4055
:1009700005786D11AD0005F1E025C5F8004109E0ED
:10098000047804F01F050124AC40054D067876116B
:1009900045F8264070BD00000CED00E000E400E0EA
:1009A00080E100E002490143024A11607047000003
:1009B0000000FA050CED00E07047000029B1064A7E
:1009C00012680243044B1A6004E0034A126882432F
:1009D000014B1A60704700003038024029B1064AC6
:1009E00012680243044B1A6004E0034A126882430F
:1009F000014B1A607047000044380240F0B50021F6
:100A000000220024022500260223324F3F6807F00F
:100A10000C0121B1042905D0082937D105E02E4F5A
:100A2000076036E02D4F076033E02A4F3F1F3F68D5
:100A3000C7F38056274F3F1F3F6807F03F036EB153
:100A4000264FB7FBF3F7DFF88CC0ACF1040CDCF8F1
:100A500000C0CCF3881C07FB0CF40CE01E4FB7FB66
:100A6000F3F7DFF870C0ACF1040CDCF800C0CCF395
:100A7000881C07FB0CF4174F3F1F3F68C7F3014763
:100A80007F1C7D00B4FBF5F7076002E0124F0760A2
:100A900000BF00BF0F4F3F6807F0F0010909104F7A
:100AA0007A5C0768D74047600A4F3F6807F4E05117
:100AB000890A0B4F7A5C4768D7408760054F3F68CB
:100AC00007F46041490B064F7A5C4768D740C7601E
:100AD000F0BD0000083802400024F40000127A0043
:100AE0001500002070B50D48FFF73FFE84B20B489B
:100AF000FFF78EFE05462146FFF735FE0C2000F07D
:100B00001BFA0648FFF731FE84B20448FFF780FE67
:100B100005462146FFF725FE70BD0000C012000803
:100B2000704700000CB50020019000903448006828
:100B300040F480303249086000BF3148006800F45A
:100B4000003000900198401C0190009818B901985D
:100B5000B0F5A04FF1D12A48006800F4003010B180
:100B60000120009001E0002000900098012846D16B
:100B700023484030006840F08050214940310860EF
:100B80002048006840F440401E4908601C48083076
:100B900000681B49083108600846006840F40040BE
:100BA00008600846006840F4A05008601648091F15
:100BB0000860081F006840F08070091F086000BFCF
:100BC0000F48006800F000700028F9D040F205706E
:100BD0000E4908600A480830006820F00300084900
:100BE000083108600846006840F00200086000BF55
:100BF00003480830006800F00C000828F8D10CBD4C
:100C0000003802400070004019544007003C024088
:100C1000042808D14FF0E021096941F004014FF0A8
:100C2000E022116107E04FF0E021096921F00401A1
:100C30004FF0E0221161704710B5FFF753FFFFF747
:100C400031FEFFF763FE10BD10B51548006840F493
:100C50007000134908601348006840F00100114912
:100C6000086000200F49083108600E4800680E49EE
:100C700008400C4908600D48091D0860081F0068FD
:100C800020F48020091F0860002006490C3108600C
:100C9000FFF748FF4FF0006001498039086010BD40
:100CA00088ED00E000380240FFFFF6FE103000241F
:100CB00010B50121044800F00FF818B101210248D5
:100CC00000F004F810BD000000040040CA43028296
:100CD00070470146486A704730B50246002000233D
:100CE0000024158A05EA0103958905EA010413B178
:100CF0000CB1012000E0002030BD000010B540F232
:100D00002551084800F02BF858B1064800F0E0F8EB
:100D10000549087000BF2021024800F013F80028A0
:100D2000F9D110BD001001401400002021B18289CA
:100D300042F40052828104E082894DF6FF731A402A
:100D40008281704702460020B1F5007F00D100BFCC
:100D500013880B400BB1012000E00020704770B5F4
:100D60000246002400230025002040F66A16B14206
:100D700000D100BFC1F3421501F01F03012606FA9E
:100D800003F3012D02D19689334006E0022D02D1F2
:100D9000168A334001E0968A33400C12012606FA87
:100DA00004F41688344013B10CB1012000E0002097
:100DB00070BDF0B50346002400260025002040F653
:100DC0006A17B94200D100BF1846C1F3421401F0BE
:100DD0001F06012707FA06F5012C01D10C3004E0AB
:100DE000022C01D1103000E014301AB107682F43F3
:100DF000076002E00768AF430760F0BD2DE9FF47D9
:100E000005460E460024A14600BFA046B08900B1A9
:100E100000BF2C8A24F44054F08804432C82AC890F
:100E200041F20C608443B0883189084371890843DA
:100E30000443AC81AC8A24F44074B0890443AC828E
:100E40006846FFF7DBFD2048854202D01F488542F7
:100E500002D1DDF80C9001E0DDF80890A88900F4DB
:100E6000004040B109EBC90000EB091031684900AE
:100E7000B0FBF1F707E009EBC90000EB091031689E
:100E80008900B0FBF1F76420B7FBF0F00401200902
:100E9000642101FB1078A88900F4004040B13220A1
:100EA00000EBC800B0FBF1F000F00700044308E0DD
:100EB000322000EB08106421B0FBF1F000F00F00CD
:100EC00004432C81BDE8FF8700100140001401405D
:100ED00001468888C0F30800704700BFFEE702E0C3
:100EE00008C8121F08C1002AFAD1704770470020B5
:100EF00001E001C1121F002AFBD1704710B5044662
:100F00006FF00400FFF784FEE11704EB5171C1F3A9
:100F1000C701074A11701046007800EB4001C1EB91
:100F2000C0104FF6FF7101EAC0000249088010BDF1
:100F300000000020020000200146114A12784A43B6
:100F40004FF0E0235A6100229A611A46126942F07A
:100F500001021A6100BF4FF0E022106900F00102A7
:100F60001AB100F48032002AF5D04FF0E022126965
:100F700022F001024FF0E0231A6100229A617047CB
:100F8000000000204FF4A060FFF70CFDFFF75CFEAF
:100F9000A820FFF7B3FFFFF7ABFC00F025F803E054
:100FA0000248007800F004F8FAE70000140000207E
:100FB000612802D0622810D107E00021084A117090
:100FC0000121084A1160732007E00121044A1170D1
:100FD0000021044A1160732000BF00BF7047000069
:100FE00004000020A482424200B585B001211020F7
:100FF000FFF7F4FC1E491F48FFF73FFA1C491E4843
:10100000FFF73BFA07211B48FFF79EFB07211A4811
:10101000FFF79AFB4FF4165000900020ADF8040043
:10102000ADF80600ADF808000C20ADF80A0000206D
:10103000ADF80C0025208DF8100000208DF811006F
:101040008DF8120001208DF8130001210B48FFF7E5
:101050006DFE012240F225510848FFF7AAFE6946BD
:101060000648FFF7CBFE04A8FFF760FC05B000BD03
:1010700001000200C8100008D01000080010014054
:1010800000000240010000000000024002000000D9
:1010900000000240040000000000024008000000C0
:1010A000000002401000000000000240200000008C
:1010B00000000240400000000000024080000000EC
:1010C0000000024000010000000002400002000099
:1010D0000000024000040000000002400008000080
:1010E000000002400010000000000240002000004C
:1010F00000000240004000000000024000800000AC
:101100000004024001000000000402400200000050
:101110000004024004000000000402400800000037
:101120000004024010000000000402402000000003
:101130000004024040000000000402408000000063
:101140000004024000010000000402400002000010
:1011500000040240000400000004024000080000F7
:1011600000040240001000000004024000200000C3
:101170000004024000400000000402400080000023
:1011800000080240010000000008024002000000C8
:1011900000080240040000000008024008000000AF
:1011A000000802401000000000080240200000007B
:1011B00000080240400000000008024080000000DB
:1011C0000008024000010000000802400002000088
:1011D000000802400004000000080240000800006F
:1011E000000802400010000000080240002000003B
:1011F000000802400040000000080240008000009B
:10120000000C024001000000000C0240020000003F
:10121000000C024004000000000C02400800000026
:10122000000C024010000000000C024020000000F2
:10123000000C024040000000000C02408000000052
:10124000000C024000010000000C024000020000FF
:10125000000C024000040000000C024000080000E6
:10126000000C024000100000000C024000200000B2
:10127000000C024000400000000C02400080000012
:1012800000100240010000000010024002000000B7
:10129000001002400400000000100240080000009E
:1012A000001002401000000000100240200000006A
:1012B00000100240400000000010024080000000CA
:1012C0000010024000010000001002400002000077
:1012D000001002400004000000100240000800005E
:1012E000001002400010000000100240002000002A
:1012F000001002400040000000100240008000008A
:10130000001402400100000000140240020000002E
:101310000014024004000000001402400800000015
:1013200000140240100000000014024020000000E1
:101330000014024040000000001402408000000041
:1013400000140240000100000014024000020000EE
:1013500000140240000400000014024000080000D5
:1013600000140240001000000014024000200000A1
:101370000014024000400000001402400080000001
:1013800000180240010000000018024002000000A6
:10139000001802400400000000180240080000008D
:1013A0000018024010000000001802402000000059
:1013B00000180240400000000018024080000000B9
:1013C0000018024000010000001802400002000066
:1013D000001802400004000000180240000800004D
:1013E0000018024000100000001802400020000019
:1013F0000018024000400000001802400080000079
:10140000001C024001000000001C0240020000001D
:10141000001C024004000000001C02400800000004
:10142000001C024010000000001C024020000000D0
:10143000001C024040000000001C02408000000030
:10144000001C024000010000001C024000020000DD
:10145000001C024000040000001C024000080000C4
:10146000001C024000100000001C02400020000090
:10147000001C024000400000001C024000800000F0
:101480000020024001000000002002400200000095
:10149000002002400400000000200240080000007C
:1014A0000020024010000000002002402000000048
:1014B00000200240400000000020024080000000A8
:1014C0000020024000010000002002400002000055
:1014D000002002400004000000200240000800003C
:1014E0000020024000100000002002400020000008
:1014F0000020024000400000002002400080000068
:10150000002402400100000000240240020000000C
:1015100000240240040000000024024008000000F3
:1015200000240240100000000024024020000000BF
:10153000002402404000000000240240800000001F
:1015400000240240000100000024024000020000CC
:1015500000240240000400000024024000080000B3
:10156000002402400010000000240240002000007F
:1015700000240240004000000024024000800000DF
:101580000028024001000000002802400200000084
:10159000002802400400000000280240080000006B
:1015A0000028024010000000002802402000000037
:1015B0000028024040000000002802408000000097
:1015C0000028024000010000002802400002000044
:1015D000002802400004000000280240000800002B
:1015E00000280240001000000028024000200000F7
:1015F0000028024000400000002802400080000057
:10160000201600080000002038000000DE0E000850
:10161000581600083800002010040000EE0E0008E4
:1016200000000000000000000000000000000000BA
:10163000000000000000000000010203040102039A
:1016400004060708090000000300000000003C0039
:081650000000960000000000FC
:040000050800018965
:00000001FF
