:10000300120062120071E4FF1200807F011200806F
:100013007F021200807F031200807F041200807F22
:10002300051200807F061200807F0712008080D6B1
:0D0080008F08120099AF0812004E0200997F
:10004E00EF4488F5BC00000000E5BC30E4FB53BC77
:04005E00EFAFBD2221
:0F00620075985A758920758BFB758DFBD28E2290
:0F007100759DFFE4F5BD75BC807F02FE02003374
:080099003099FDC2998F9922F4
:10003300EF1FAA0670011E4A60107C137D88ED1D18
:0A004300AA0470011C4A60E880F472
:01004D002290
:0300000002008D6E
:0C008D00787FE4F6D8FD758108020003BE
:00000001FF
