:020000040800F2
:1000000088150020E11000082B0200082D020008CE
:100010003102000835020008390200080000000023
:100020000000000000000000000000003D02000889
:100030003F020008000000004102000843020008DF
:10004000FB100008FB100008FB100008FB10000864
:10005000FB100008FB100008FB100008FB10000854
:10006000FB100008FB100008FB100008FB10000844
:10007000FB100008FB100008FB100008FB10000834
:10008000FB100008FB100008FB100008FB10000824
:10009000FB100008FB100008FB100008FB10000814
:1000A000FB100008FB100008FB100008FB10000804
:1000B000FB100008FB100008FB100008FB100008F4
:1000C000FB100008FB100008FB100008FB100008E4
:1000D000FB100008FB100008FB100008FB100008D4
:1000E000FB100008FB100008FB100008FB100008C4
:1000F000FB100008FB100008FB100008FB100008B4
:10010000FB100008FB100008FB100008FB100008A3
:10011000FB100008FB100008FB100008FB10000893
:10012000FB100008FB100008FB100008FB10000883
:10013000FB100008FB100008FB100008FB10000873
:10014000FB100008FB100008FB100008FB10000863
:10015000FB100008FB100008FB100008FB10000853
:10016000FB100008FB100008FB100008FB10000843
:10017000FB100008FB100008FB100008FB10000833
:10018000FB100008FB10000800F002F800F03CF83B
:100190000AA090E8000C82448344AAF10107DA45E2
:1001A00001D100F031F8AFF2090EBAE80F0013F0F8
:1001B000010F18BFFB1A43F0010318476C2500001C
:1001C0008C250000103A24BF78C878C1FAD85207AD
:1001D00024BF30C830C144BF04680C6070470000C1
:1001E0000023002400250026103A28BF78C1FBD840
:1001F000520728BF30C148BF0B6070471FB502F0DF
:10020000ADF81FBD10B510BD02F075F81146FFF72F
:10021000F5FF00F008F802F093F803B4FFF7F2FFDF
:1002200003BC00F00BFA00207047704700BFFEE7E8
:1002300000BFFEE700BFFEE700BFFEE77047704764
:10024000704770470CB50020019000907648006818
:1002500040F480307449086000BF7348006800F4BF
:10026000003000900198401C0190009818B9019846
:10027000B0F5A04FF1D16C48006800F4003010B127
:100280000120009001E0002000900098012846D154
:1002900065484030006840F0805063494031086054
:1002A0006248006840F44040604908605E48083099
:1002B00000685D49083108600846006840F4004065
:1002C00008600846006840F4A05008605848091FBC
:1002D0000860081F006840F08070091F086000BFB8
:1002E0005148006800F000700028F9D040F2057015
:1002F000504908604C480830006820F003004A4923
:10030000083108600846006840F00200086000BF3D
:1003100045480830006800F00C000828F8D10CBDF2
:1003200010B54548006840F47000434908603E48F5
:10033000006840F001003C49086000203A4908315B
:100340000860394800683D490840374908603C4822
:10035000091D0860081F006820F48020091F08603C
:10036000002031490C310860FFF76CFF4FF000604E
:1003700031498039086010BD70B500200022022389
:1003800000240221284D08352D6805F00C0020B10D
:10039000042806D0082834D107E02A4D2A4E3560BB
:1003A00033E02A4D284E35602FE01F4D2D1D2D685E
:1003B000C5F380541C4D2D1D2D6805F03F0154B12F
:1003C000224DB5FBF1F5184E361D3668C6F388167A
:1003D00005FB06F209E01B4DB5FBF1F5124E361D8B
:1003E0003668C6F3881605FB06F20F4D2D1D2D68E5
:1003F000C5F301456D1C6B00B2FBF3F5124E356081
:1004000003E0104D104E356000BF00BF064D0835AB
:100410002D68C5F303150E4E705D0B4D2D68C5405C
:10042000094E356070BD0000003802400070004089
:1004300008544007003C024088ED00E0FFFFF6FE54
:10044000103000240024F4000000002000127A0084
:100450000400002070B505466F492868884201D124
:1004600001242EE06D492868884201D1022428E049
:100470006B492868884201D1042422E06949286830
:10048000884201D108241CE067492868884201D1CC
:10049000102416E065492868884201D1202410E024
:1004A00063492868884201D140240AE061492868EC
:1004B000884201D1802404E05F492868884200D145
:1004C00084150121204601F093FB70BD01464A6866
:1004D000B2F5807F3BD012DC102A30D008DC012A34
:1004E00025D0022A25D0042A25D0082A3FD124E08D
:1004F000202A26D0402A26D0802A38D125E0B2F5FD
:10050000805F2CD009DCB2F5007F22D0B2F5806F7D
:1005100021D0B2F5006F2AD11FE0B2F5005F20D0E4
:10052000B2F5804F1FD0B2F5004F20D11DE0002062
:100530001DE001201BE0022019E0032017E0042049
:1005400015E0052013E0062011E007200FE0082049
:100550000DE009200BE00A2009E00B2007E00C2049
:1005600005E00D2003E00E2001E00F2000BF00BFDA
:10057000704770B504460D462046FFF7A7FF0646B4
:100580002A463146206801F020F970BD2DE9FC4172
:1005900080460D46C5F3074030B1012806D0022839
:1005A00006D0032808D105E0002405E0012403E07B
:1005B000022401E0032400BF00BFC5F3072010B1EF
:1005C000012804D101E0002701E0012700BF00BF9E
:1005D000E8B220B1012804D0022806D103E00026A9
:1005E00003E0012601E0022600BF00BF4046FFF7FE
:1005F00031FFD8F8040000908DF804408DF80670A3
:1006000003208DF805008DF807606946D8F80000D2
:1006100001F050F8BDE8FC810000024000040240F7
:1006200000080240000C024000100240001402408A
:1006300000180240001C02400020024000BF70472A
:1006400000BFF94A128802F04002002AF9D0C2B273
:10065000F54B1B1D1A80704700BF704710B504464C
:10066000F248844204D10121102001F01BFB26E056
:10067000EF48844204D10121480401F002FB1EE04E
:10068000EC48844204D10121880401F0FAFA16E012
:10069000E948844204D10121C80401F0F2FA0EE0D5
:1006A000E648844204D10121080501F0EAFA06E097
:1006B000DD48844203D10121202001F0F3FA10BD6E
:1006C0000146DA4A914201D1072017E0D84A914207
:1006D00001D1072012E0D74A914201D107200DE055
:1006E000D54A914201D1082008E0D44A914201D173
:1006F000082003E0CC4A914200D10820704701460F
:10070000CA4A914201D1252017E0C94A914201D13C
:10071000262012E0C74A914201D127200DE0C64AA7
:10072000914201D1342008E0C44A914201D13520E0
:1007300003E0BD4A914200D1472070470146BB4AC1
:10074000914201D1BE4817E0B94A914201D1BD485A
:1007500012E0B84A914201D1BB480DE0B64A91423D
:1007600001D1BA4808E0B54A914201D1B84803E046
:10077000AD4A914200D1B74870470146AB4A914219
:1007800001D1801517E0AA4A914201D1481512E023
:10079000A84A914201D148150DE0A74A914201D1E2
:1007A000881508E0A54A914201D1881503E09E4AC8
:1007B000914200D18020704701469C4A914201D16C
:1007C000A54817E09A4A914201D1A44812E0994AFB
:1007D000914201D1A2480DE0974A914201D1A1482E
:1007E00008E0964A914201D19F4803E08E4A914227
:1007F00000D19E48704701468C4A914201D1801534
:1008000017E08B4A914201D1481512E0894A914282
:1008100001D148150DE0884A914201D1881508E0C0
:10082000864A914201D1881503E07F4A914200D166
:1008300080207047024680291DD17C4B9A4201D10D
:100840008B4837E07A4B9A4201D18A4832E0794BA3
:100850009A4201D188482DE0774B9A4201D18748CE
:1008600028E0764B9A4201D1854823E06E4B9A42AC
:1008700020D184481EE040291CD16C4B9A4201D102
:10088000814817E06A4B9A4201D1804812E0694BD7
:100890009A4201D17E480DE0674B9A4201D17D48D2
:1008A00008E0664B9A4201D17B4803E05E4B9A42D6
:1008B00000D17A487047F0B585B004460D4616461B
:1008C000201D0FC88DE80F002068FFF7C7FE606984
:1008D00018B173496069FFF759FEA06918B17049F2
:1008E000A069FFF753FE606938B12068FFF7E8FEA2
:1008F000074639466069FFF73CFEA06938B12068B9
:10090000FFF7DEFE07463946A069FFF732FE69466B
:10091000206801F028FBFF2D16D0FF2E14D0206890
:10092000FFF7EDFE8DF810008DF811508DF8126074
:1009300001208DF8130004A800F0F7FB012240F21B
:100940002441206801F04DFC606920B10122802122
:10095000206801F03DFCA06920B1012240212068FF
:1009600001F036FC0121206801F085FB05B0F0BDE7
:1009700070B504462068FFF71FFF054680212068F8
:10098000FFF758FF06462068011D00232A4630461F
:1009900000F02CFB01228021206801F019FC70BDC1
:1009A0002DE9F04104462068FFF7C8FE064620689E
:1009B000FFF7E3FE054640212068FFF73BFF0746AF
:1009C000ABB22068011D3246384600F04BFB0122D5
:1009D0004021206801F0FCFBBDE8F08130B50B46FA
:1009E00000210BE05C5C0568AC8000BF04682488D3
:1009F00004F04004002CF9D04C1CE1B29142F1DB30
:100A000030BD10B500220BE08B5C0468A38000BFF2
:100A100003681B8803F04003002BF9D0531C9AB2E3
:100A20008B5C002BF0D110BD001401400010014080
:100A30000044004000480040004C0040005000408E
:100A4000240000202401002024030020240500208D
:100A50002406002024070020A4070020A40800206A
:100A6000A40A0020A40C0020A40D0020A40E002045
:100A700000270008082500084024000888240008F2
:100A800050250008D8260008E8250008D0240008D2
:100A9000B82300080024000888230008A8250008BF
:100AA0000100020070B504460D460026E4480068C7
:100AB00008B1012070BD0021E148001F00F07CFC5E
:100AC0000AE0701CC6B2C82E06DD0121DC48001FFA
:100AD00000F072FC0220EDE7D948001F00F0B9FCDD
:100AE0000028EED14FF03051D548001F00F0DDFC5A
:100AF000D34808300460D24805600121001F00F08F
:100B00005BFC0020D6E770B504460D460026CD48B4
:100B1000006808B1012070BD0021CA48001F00F024
:100B20004BFC0AE0701CC6B2C82E06DD0121C54888
:100B3000001F00F041FC0220EDE7C248001F00F05A
:100B400088FC0028EED1C049BE48001F00F0ADFC73
:100B5000BC4808300460BB48A438C0F8A450012148
:100B6000B848001F00F028FC0020D4E770B5044608
:100B70000D460026B348A438C06D08B1012070BDF1
:100B80000021B0484C3800F017FC0AE0701CC6B2D7
:100B9000C82E06DD0121AB484C3800F00DFC0220C8
:100BA000EDE7A8484C3800F054FC0028EED14FF097
:100BB000E051A4484C3800F078FCA248A4384466C0
:100BC000C56501219F484C3800F0F6FB0020D6E7B0
:100BD00070B504460D4600269A48A438406F08B107
:100BE000012070BD00219748343800F0E5FB0AE091
:100BF000701CC6B2C82E06DD01219248343800F0C0
:100C0000DBFB0220EDE78F48343800F022FC00289F
:100C1000EED18E498B48343800F047FC8948A4381F
:100C2000C467456701218748343800F0C5FB0020C0
:100C3000D7E770B504460D46002682481830006894
:100C400008B1012070BD00217E48143000F0B4FBD3
:100C50000AE0701CC6B2C82E06DD012179481430A6
:100C600000F0AAFB0220EDE77648143000F0F1FB1B
:100C70000028EED14FF030517248143000F015FCCE
:100C80007048203004606F48A438C0F8BC5001217F
:100C90006C48143000F090FB0020D3E770B5044698
:100CA0000D46002666481838006808B1012070BD5E
:100CB000002163481C3800F07FFB0AE0701CC6B2BC
:100CC000C82E06DD01215E481C3800F075FB0220AD
:100CD000EDE75B481C3800F0BCFB0028EED15A4918
:100CE00057481C3800F0E1FB554810380460544860
:100CF000183805600121001F00F05EFB0020D6E7D8
:100D000070B504460D4600264E48A438C06A08B1A6
:100D1000012070BD00214B487C3800F04DFB0AE0FB
:100D2000701CC6B2C82E06DD012146487C3800F092
:100D300043FB0220EDE743487C3800F08AFB0028A3
:100D4000EED143493F487C3800F0AFFB3D48A43822
:100D50004463C56201213B487C3800F02DFB002034
:100D6000D7E770B504460D4600263648A4384069DA
:100D700008B1012070BD00213248943800F01CFBFE
:100D80000AE0701CC6B2C82E06DD01212D48943839
:100D900000F012FB0220EDE72A48943800F059FBDE
:100DA0000028EED12B492748943800F07EFB2548D7
:100DB000A438C461456101212248943800F0FCFA4E
:100DC0000020D7E72DE9F04104460D4616460027DE
:100DD0002148844205D131462846FFF763FE074685
:100DE0002BE01E48844205D131462846FFF78BFE92
:100DF000074622E01A48844205D131462846FFF7CB
:100E0000B5FE074619E01748844205D13146284609
:100E1000FFF7DEFE074610E01348844205D1314655
:100E20002846FFF706FF074607E01048844204D132
:100E300031462846FFF732FF07463846BDE8F081C5
:100E4000BC640240A460024000003020300000205A
:100E5000000C001030000010001001400044004061
:100E600000480040004C0040005000400014014089
:100E7000F0B58FB004460D4616461F4697492068C8
:100E8000884204D90121880500F0B2FE03E0012167
:100E9000480500F0ADFE206800F0B2F900BF206800
:100EA00000F0D7FA0028FAD1606800900195029608
:100EB000402003900497002005904FF48060069036
:100EC00000200790089009904FF480300A9000208D
:100ED0000B9003200C9000200D900E906946206826
:100EE00000F030FA0FB0F0BDF0B58FB004460D46FB
:100EF00016461F4679492068884204D90121880591
:100F000000F076FE03E00121480500F071FE206844
:100F100000F076F900BF206800F09BFA0028FAD1B3
:100F20006068009001950296402003900497042089
:100F30000B9000200C9005904FF4806006904000CC
:100F400007900890002009904FF400300A9000208C
:100F50000D900E906946206800F0F4F901221021EE
:100F6000206800F0B6FA0FB0F0BDF0B58FB00446BF
:100F70000D4616461F4659492068884204D901216A
:100F8000880500F035FE03E00121480500F030FE41
:100F9000206800F035F900BF206800F05AFA0028F8
:100FA000FAD1606800900195029640200390049762
:100FB00004200B9000200C9005904FF48060069068
:100FC000400007900890002009904FF440300A90AC
:100FD00000200D900E906946206800F0B3F90122C0
:100FE0001021206800F075FA0FB0F0BDF0B58FB099
:100FF00004460D4616461F4638492068884204D9E3
:101000000121880500F0F4FD03E00121480500F00E
:10101000EFFD206800F0F4F800BF206800F019FA36
:101020000028FAD160680090019502964020039054
:101030000497002005904FF48060069000200790F0
:10104000089009904FF480300A9000200B90032004
:101050000C9000200D900E906946206800F072F907
:101060000FB0F0BDF0B58FB004460D4616461F46D2
:101070001A492068884204D90121880500F0B8FD8A
:1010800003E00121480500F0B3FD206800F0B8F846
:1010900000BF206800F0DDF90028FAD160680090F8
:1010A0000195029600200390049705904FF480600C
:1010B000069000200790089009904FF480300A9025
:1010C00000200B9003200C9000200D900E9069469C
:1010D000206800F037F90FB0F0BD00000064024056
:1010E0000948804709480047FEE7FEE7FEE7FEE7BC
:1010F000FEE7FEE7FEE7FEE7FEE7FEE704480549F8
:10110000054A064B704700002103000889010008CA
:10111000880F0020881500208811002088110020E9
:1011200032490143324A1160704770B500210023F3
:101130000F22C4781CB32E4C246804F4E064C4F578
:10114000E064C4F30721C1F10404E3B20A41447826
:101150009C40E1B28478144021430C07210E254CB9
:1011600005786155047804F01F050124AC4005782A
:101170006D11AD0005F1E025C5F8004109E00478E6
:1011800004F01F050124AC401B4D0678761145F88C
:10119000264070BD194A0A400243154B1B1F1A60B6
:1011A000704739B1124A121D12680243104B1B1DC1
:1011B0001A6006E00E4A121D126882430C4B1B1D7A
:1011C0001A607047042808D14FF0E021096941F006
:1011D00004014FF0E022116107E04FF0E0210969BE
:1011E00021F004014FF0E022116170470000FA0580
:1011F0000CED00E000E400E080E100E080FFFF1F74
:10120000016821F0010101600021016041608160FD
:10121000C160016121214161DB49884204D13D2146
:10122000D94A103A91608CE0D7491831884205D1EB
:101230004FF47461D44A103A916082E0D24930315F
:10124000884205D14FF47411CF4A103A916078E08A
:10125000CD494831884205D14FF07461CA4A103AED
:1012600091606EE0C8496031884204D1C749C64ADE
:10127000103AD16065E0C4497831884204D1C4494C
:10128000C14A103AD1605CE0BF499031884204D134
:10129000C049BD4A103AD16053E0BB49A8318842E9
:1012A00005D14FF03D51B84A103AD16049E0BA49F2
:1012B000884204D13D21B84A083A116041E0B6495C
:1012C0001831884205D14FF47461B34A083A11606D
:1012D00037E0B1493031884205D14FF47411AE4A3C
:1012E000083A11602DE0AC494831884205D14FF0F1
:1012F0007461A94A083A116023E0A7496031884225
:1013000004D1A249A44A121F11601AE0A2497831FF
:10131000884204D19E49A04A121F116011E09E49E3
:101320009031884204D19B499B4A121F116008E00A
:101330009949A831884204D14FF03D51964A121F75
:101340001160704710B500220268944B1A40CC68B7
:101350000B6823434C6923438C692343CC692343A3
:101360000C6A23434C6A23438C6A23434C6B23430C
:101370008C6B23431A430260426922F00702D1E9D1
:101380000B3423431A4342610B6943604B6883600B
:101390008B68C36010BD0021016041608160C16045
:1013A000016141618161C161016241628162C16229
:1013B000016341638163704721B1026842F0010219
:1013C000026003E0026822F001020260704721B16E
:1013D000026842F40042026003E0026822F4004224
:1013E0000260704721B1026842F02002026003E00F
:1013F000026822F020020260704741607047014697
:10140000486880B2704722B1036843F40023036048
:1014100003E0036823F4002303600161704721B1F6
:10142000026842F48022026003E0026822F4802213
:10143000026070470AB1016100E0C1607047014677
:1014400000200A6802F400220AB1012000E0002016
:101450007047014600200A6802F001020AB101202B
:1014600000E000207047014600204A6902F0380081
:10147000704730B503460A4600200024464DAB4273
:1014800002D24149103901E04349103902F00055B8
:101490000DB14C6800E00C68414D2C4004EA020597
:1014A0000DB1012000E0002030BD02463A4B9A42C7
:1014B00002D23548103801E03748103801F00053A7
:1014C0001BB1374B0B40C36002E0354B0B408360D0
:1014D000704710B501F080034BB122B1436943F06E
:1014E0008003436103E0436923F080034361802963
:1014F0000BD02AB1036801F01E042343036004E00B
:10150000036801F01E04A343036010BD70B50246DA
:10151000002000240025204EB24202D21A4B103B7C
:1015200001E01D4B103B1F4E0E4036B11E2606EA51
:10153000D124166806EA040502E0566906F0800523
:1015400001F000560EB15C6800E01C68144E344097
:1015500004EA010616B10DB1012000E0002070BDC3
:1015600002460D4B9A4202D20748103801E00A4861
:10157000103801F000531BB1094B0B40C36002E06F
:10158000074B0B4083607047106002403D00002015
:10159000400F002000003D20106402403F801CF0FE
:1015A0007D0F7D0F3C0F3C0F10B5044698488442D8
:1015B00008D10121084600F086FB0021012000F03F
:1015C00082FB76E09348844208D10121022000F09A
:1015D0007AFB0021022000F076FB6AE08E4884420C
:1015E00008D10121042000F06EFB0021042000F04E
:1015F0006AFB5EE08948844208D10121082000F09E
:1016000062FB0021082000F05EFB52E08448844227
:1016100008D10121102000F056FB0021102000F01D
:1016200052FB46E07F48844208D10121202000F08F
:101630004AFB0021202000F046FB3AE07A48844231
:1016400008D10121402000F03EFB0021402000F0A5
:101650003AFB2EE07548844208D10121802000F039
:1016600032FB0021802000F02EFB22E070488442F3
:1016700008D10121801500F026FB0021A01500F003
:1016800022FB16E06B48844208D10121401500F08E
:101690001AFB0021601500F016FB0AE06648844240
:1016A00007D10121001500F00EFB0021201500F0EC
:1016B0000AFB10BDF0B50A4600210023002400BF3C
:1016C0003DE0012505FA01F3156805EA03049C4293
:1016D00034D105684F000326BE40B5430560157937
:1016E0004E00B5400668354305601579012D02D0DE
:1016F0001579022D16D185684F000326BE40B543EB
:10170000856055794E00B5408668354385604568EB
:1017100001268E40B5434560456896798E40B6B245
:1017200035434560C5684F000326BE40B543C560DC
:10173000D5794E00B540C6683543C560491C1029AF
:10174000BFD3F0BD4FF6FF710160002101714171FF
:101750008171C171704708B54FF480320092009AD0
:101760000A430092009AC261C161009AC261C269D3
:101770000092C269009208BD0246002013690B4026
:101780000BB1012000E0002070470146086980B2DB
:1017900070470246002053690B400BB1012000E066
:1017A000002070470146486980B270470183704746
:1017B000418370470AB1018300E041837047416172
:1017C000704742694A4042617047F0B500230024E7
:1017D0004D07ED0E02FA05F3CE1000F1200555F885
:1017E00026504E07F70E0F26BE40B543CF1000F12E
:1017F000200646F82750CE1000F1200555F8265057
:1018000045EA0304CE1000F1200545F82640F0BD5E
:10181000000002400004024000080240000C0240A8
:10182000001002400014024000180240001C024058
:10183000002002400024024000280240F9480068CD
:1018400040F00100F74908600020F64908310860BF
:10185000F4480068F4490840F2490860F348091D5B
:101860000860F348EF4984310860F0481038091DDA
:101870000860EC48006820F48020EA4908600020F5
:10188000E8490C310860E7498C3108607047002155
:10189000E44A921C117011460870704710B5014659
:1018A0000022002300204A11012A02D1DD4C2368C6
:1018B00008E0022A03D1DB4C7034236802E0D94CE3
:1018C0007434236801F01F02012494401C400CB1C1
:1018D000012000E0002010BD38B500200090002459
:1018E000002500BF3120FFF7D9FF05460098401CB6
:1018F00000900098B0F5A04F01D0002DF2D031201B
:10190000FFF7CCFF08B1012400E00024204638BDD9
:1019100001460020C34A106820F0F80040EAC100E8
:1019200010607047C349086070470021BD4A70329B
:1019300011701170012802D004280AD104E001219D
:10194000B84A7032117005E00521B64A7032117044
:1019500000E000BF00BF7047B7490860704770B52E
:10196000049C41EA82150126C6EB530645EA06456A
:10197000054345EA0465AB4E361D356070BDAD4983
:1019800008667047820142EA0172A64B84331A60EE
:101990007047A8498866704710B5830143EA016320
:1019A00043EA02739F4C8834236010BDA149086745
:1019B0007047A049C864704702460020994B08331D
:1019C000186820F0EC6042EA01031843954B083395
:1019D0001860704702460020924B0833186820F0C8
:1019E000784042EA010318438E4B08331860704771
:1019F000014600208B4A0832106820F0030008439B
:101A00001060704787480830006800F00C0070478D
:101A100001460020834A0832106820F0F000084395
:101A200010607047014600207E4A0832106820F49A
:101A3000E05008431060704701460020794A0832A0
:101A4000106820F4604040EAC10010607047F0B5B3
:101A5000002100220024022500260223714F0837AE
:101A60003F6807F00C0121B1042905D0082937D1BE
:101A700005E0724F076036E0714F076033E0694F51
:101A80003F1D3F68C7F38056664F3F1D3F6807F014
:101A90003F036EB16A4FB7FBF3F7DFF888C10CF173
:101AA000040CDCF800C0CCF3881C07FB0CF40CE041
:101AB000624FB7FBF3F7DFF86CC10CF1040CDCF8F4
:101AC00000C0CCF3881C07FB0CF4564F3F1D3F6849
:101AD000C7F301477F1C7D00B4FBF5F7076002E008
:101AE000564F076000BF00BF4E4F08373F6807F0F2
:101AF000F0010909534F7A5C0768D7404760494FA6
:101B000008373F6807F4E051890A4E4F7A5C47680E
:101B1000D7408760434F08373F6807F46041490B5F
:101B2000484F7A5C4768D740C760F0BD002100F499
:101B30004072B2F5407F0AD13A4A0832116821F466
:101B4000F811414A02401143364A08321160354AC1
:101B500070321268C0F30B031A43324B70331A60B1
:101B60007047354944390860704733494039086047
:101B7000704736490860704701460020294A8C3278
:101B8000106820F01F004A1E1043264A8C32106055
:101B9000704701460020234A8C32106820F4F85028
:101BA0004A1E40EA02201F4A8C32106070470146EC
:101BB00000201C4A8C32106820F44010084310604A
:101BC000704701460020174A8C32106820F440000C
:101BD00008431060704701460020124A8C3210689A
:101BE00020F440300843106070471949086070477E
:101BF00039B10C4A3032126802430A4B30331A6052
:101C000006E0084A303212688243064B30331A60CD
:101C10007047F9B1034A343212680243014B34333E
:101C20001A601CE000380240FFFFF6EA1030002482
:101C30000030002000004742800E47420024F4009C
:101C400000127A0014000020FFFCFF0F5C014742E5
:101C5000E01147428F4A126882438E4B1A607047E8
:101C600039B18C4A121D126802438A4B1B1D1A603F
:101C700006E0884A121D12688243864B1B1D1A60BB
:101C8000704739B1834A0C3212680243814B0C33DE
:101C90001A6006E07F4A0C32126882437D4B0C3397
:101CA0001A60704739B17B4A103212680243794B8F
:101CB00010331A6006E0774A103212688243754B7F
:101CC00010331A60704739B1724A243A12680243DD
:101CD000704B243B1A6006E06E4A243A1268824335
:101CE0006C4B243B1A60704739B16A4A203A12683B
:101CF0000243684B203B1A6006E0664A203A1268AD
:101D00008243644B203B1A60704739B1614A1C3AE8
:101D1000126802435F4B1C3B1A6006E05D4A1C3AA6
:101D2000126882435B4B1C3B1A60704739B1594AB9
:101D3000143A12680243574B143B1A6006E0554AA6
:101D4000143A12688243534B143B1A60704739B1FE
:101D5000504A103A126802434E4B103B1A6006E09C
:101D60004C4A103A126882434A4B103B1A60704743
:101D700039B1484A1C3212680243464B1C331A6080
:101D800006E0444A1C3212688243424B1C331A60FC
:101D9000704739B13F4A2032126802433D4B20332D
:101DA0001A6006E03B4A203212688243394B2033E6
:101DB0001A60704739B1374A243212680243354BF2
:101DC00024331A6006E0334A243212688243314BCE
:101DD00024331A60704739B12E4A2C3212680243FC
:101DE0002C4B2C331A6006E02A4A2C3212688243AC
:101DF000284B2C331A60704739B1264A30321268AA
:101E00000243244B30331A6006E0224A3032126813
:101E10008243204B30331A607047012808D11D4996
:101E20003C31096841F008011A4A3C32116007E070
:101E300018493C31096821F00801164A3C3211600A
:101E4000704739B1134A273A12780243114B273BA6
:101E50001A7006E00F4A273A127882430D4B273B4F
:101E60001A7070470B484030006840F08070094994
:101E700040310860704701460020064A283A12683F
:101E80000A400AB1012000E00020704701492639CC
:101E9000087070473438024010B50446FA4884424E
:101EA00008D101211020FFF752FF00211020FFF779
:101EB0004EFF57E0F548844209D101214804FFF75D
:101EC00035FF00214FF40030FFF730FF4AE0F048C3
:101ED000844209D101218804FFF728FF00214FF433
:101EE0008020FFF723FF3DE0EA48844209D1012129
:101EF000C804FFF71BFF00214FF40020FFF716FF77
:101F000030E0E548844209D101210805FFF70EFFC2
:101F100000214FF48010FFF709FF23E0DF488442DF
:101F200008D101212020FFF712FF00212020FFF718
:101F30000EFF17E0DA48844209D101218807FFF734
:101F4000F5FE00214FF08040FFF7F0FE0AE0D54893
:101F5000844207D101214005FFF7E8FE002160051A
:101F6000FFF7E4FE10BD2DE9FF4705460E460024AD
:101F7000A14600BFA046B08900B100BF2C8A24F45E
:101F80004054F08804432C82AC8941F20C608443B5
:101F9000B08831890843718908430443AC81AC8A15
:101FA00024F44074B0890443AC826846FFF74FFDC7
:101FB000B548854202D0B948854202D1DDF80C907F
:101FC00001E0DDF80890A88900F4004040B109EB79
:101FD000C90000EB091031684900B0FBF1F707E0D8
:101FE00009EBC90000EB091031688900B0FBF1F77B
:101FF0006420B7FBF0F004012009642101FB107894
:10200000A88900F4004040B1322000EBC800B0FBCA
:10201000F1F000F00700044308E0322000EB081064
:102020006421B0FBF1F000F00F0004432C81BDE807
:10203000FF874FF41651016000218180C18001812A
:102040000C21418100218181704710B5024600209A
:10205000108A20F470600B884C8823438C882343BB
:10206000CC8823431843108210BD00210180418099
:102070008180C180704721B1828942F400528281FF
:1020800004E082894DF6FF731A4082817047028B0B
:1020900002F47F420283028B0A430283704721B11C
:1020A000828942F40042828103E08289C2F30E02F7
:1020B0008281704721B1828A42F40062828204E008
:1020C000828A4FF2FF731A4082827047C1F308027E
:1020D0008280704701468888C0F308007047028AF2
:1020E0004FF6F0731A400282028A0A430282704756
:1020F00021B1828942F00202828104E082894FF696
:10210000FD731A408281704782894FF2FF731A4033
:10211000828182890A4382817047028A4FF6DF7387
:102120001A400282028A0A430282704721B1028A5F
:1021300042F48042028204E0028A4BF6FF731A40A6
:1021400002827047818941F001018181704721B18C
:10215000828A42F00802828204E0828A4FF6F77394
:102160001A4082827047028BD2B20283028B42EA0B
:1021700001220283704721B1828A42F020028282CA
:1021800004E0828A4FF6DF731A408282704721B1E1
:10219000828A42F01002828204E0828A4FF6EF7354
:1021A0001A4082827047828A4FF6FB731A408282FD
:1021B000828A0A438282704721B1828A42F00202F7
:1021C000828204E0828A4FF6FD731A408282704751
:1021D0001AB1838A0B43838202E0838A8B43838212
:1021E0007047F0B50346002400260025002040F685
:1021F0006A17B94200D100BF1846C1F3421401F07A
:102200001F06012707FA06F5012C01D10C3004E066
:10221000022C01D1103000E014301AB107682F43AE
:10222000076002E00768AF430760F0BD0246002088
:10223000B1F5007F00D100BF13880B400BB1012026
:1022400000E00020704701F40072B2F5007F00D179
:1022500000BFCA430280704770B5024600240023C5
:102260000025002040F66A16B14200D100BFC1F33C
:10227000421501F01F03012606FA03F3012D13D1C5
:102280009689334017E000000010014000440040F0
:1022900000480040004C0040005000400014014045
:1022A00000780040007C0040022D02D1168A3340A5
:1022B00001E0968A33400C12012606FA04F41688CF
:1022C000344013B10CB1012000E0002070BD10B506
:1022D0000022002340F66A14A14200D100BF0A1276
:1022E00001249440A3B2DC43048010BD70477047C2
:1022F000704770477047754600F02CF8AE460500F1
:102300006946534620F00700854618B020B5FEF711
:10231000F5FEBDE820404FF000064FF000074FF0FB
:1023200000084FF0000B21F00701AC46ACE8C009F3
:10233000ACE8C009ACE8C009ACE8C0098D467047FC
:1023400010B50446AFF300802046BDE81040FDF70D
:1023500064BF000000487047240F00204FF0407019
:10236000E1EE100A7047000010600240000000001B
:1023700010600240000000021060024000000004F3
:1023800010600240000000061060024000000008DB
:10239000106002400000000A106002400000000CC3
:1023A000106002400000000C28600240000000069F
:1023B000286002400000000628600240000000087B
:1023C000286002400000000A286002400000000C63
:1023D000286002400000000C286002400000000E4F
:1023E0004060024000000000406002400000000227
:1023F000406002400000000440600240000000060F
:102400004060024000000008406002400000000AF6
:10241000406002400000000A406002400000000CE2
:10242000406002400000000E5860024000000000C2
:10243000586002400000000458600240000000069E
:102440005860024000000008586002400000000A86
:10245000586002400000000C586002400000000C70
:10246000586002400000000E706002400000000052
:102470007060024000000002706002400000000432
:10248000706002400000000670600240000000081A
:10249000706002400000000A706002400000000A04
:1024A000706002400000000C706002400000000EEE
:1024B00088600240000000008860024000000002C6
:1024C00088600240000000048860024000000006AE
:1024D0008860024000000008886002400000000A96
:1024E000886002400000000EA06002400000000270
:1024F000A060024000000004A0600240000000064E
:10250000A060024000000006A06002400000000839
:10251000A06002400000000AA06002400000000C21
:10252000A06002400000000EB86002400000000001
:10253000B860024000000002B860024000000004E1
:10254000B860024000000006B860024000000006CB
:10255000B860024000000008B86002400000000AB5
:10256000B86002400000000E10640240000000004D
:1025700010640240000000041064024000000006E5
:102580001064024000000008106402400000000CCB
:102590002864024000000002286402400000000499
:1025A0002864024000000008286402400000000A7D
:1025B000286402400000000C286402400000000E65
:1025C000406402400000000040640240000000003F
:1025D000406402400000000040640240000000022D
:1025E0004064024000000006406402400000000811
:1025F000406402400000000A406402400000000CF9
:10260000406402400000000E5864024000000002D6
:1026100058640240000000045864024000000006B4
:102620005864024000000008586402400000000A9C
:10263000586402400000000C586402400000000E84
:10264000706402400000000070640240000000045A
:10265000706402400000000A706402400000000C38
:10266000706402400000000C706402400000000C26
:10267000706402400000000E886402400000000206
:1026800088640240000000048864024000000006E4
:102690008864024000000008886402400000000CCA
:1026A000886402400000000EA064024000000000A8
:1026B000A064024000000000A0640240000000008E
:1026C000A064024000000002A06402400000000478
:1026D000A064024000000008A06402400000000A5C
:1026E000A06402400000000CA06402400000000E44
:1026F000B864024000000002B86402400000000418
:10270000B864024000000008B86402400000000AFB
:10271000B86402400000000EB86402400000000EE1
:10272000B86402400000000E4827000800000020A6
:1027300024000000C40100086C27000824000020C9
:1027400064150000E0010008007A030A00000000A0
:102750000000000001020304060708090000000051
:0C2760000102030401020304060708093B
:040000050800018965
:00000001FF
