:03011B00011000D0
:0B001E001201041200F175A8A080FE82
:03002B000200BA16
:1000BA00C0E0C0F0C083C082C0D075D00875BC0053
:1000CA00AF10120113AFBD1201130510E510D3943E
:1000DA00074003751000E5104488F5BCD0D0D082E3
:0700EA00D083D0F0D0E0321A
:1000F100759DFFE4F5BDE5104488F5BC7F027E00E7
:03010100020003F6
:0F01040075985A758920758BFB758DFBD28E22ED
:080113003099FDC2998F992279
:10000300EF1FAA0670011E4A60107C137D88ED1D48
:0A001300AA0470011C4A60E880F4A2
:01001D0022C0
:0300000002002ECD
:0C002E00787FE4F6D8FD758110020075A3
:10003A0002001EE493A3F8E493A34003F68001F2BE
:10004A0008DFF48029E493A3F85407240CC8C333C7
:10005A00C4540F4420C8834004F456800146F6DF96
:10006A00E4800B010204081020408090011BE47E0A
:10007A00019360BCA3FF543F30E509541FFEE4938B
:10008A00A360010ECF54C025E060A840B8E493A352
:10009A00FAE493A3F8E493A3C8C582C8CAC583CA7D
:1000AA00F0A3C8C582C8CAC583CADFE9DEE780BE35
:01011E0000E0
:00000001FF
