:020000040800F2
:10000000F8700020090200082B150008DD14000814
:1000100029150008A90C00080D21000800000000A7
:100020000000000000000000000000006501000862
:10003000F70D000800000000A9010008A119000840
:1000400023020008230200082302000823020008FC
:1000500023020008230200082302000823020008EC
:100060002302000823020008F90D000823020008FB
:1000700023020008230200082302000823020008CC
:1000800023020008230200082302000823020008BC
:10009000230200082302000823020008550F00086D
:1000A000230200082302000823020008230200089C
:1000B0002302000823020008611B00082302000835
:1000C000230200082302000823020008230200087C
:1000D00023020008791F00082302000823020008F9
:1000E0002302000823020008230200080000000089
:1000F0000000000000000000000000000000000000
:100100000000000000000000230200082302000895
:10011000230200082302000823020008230200082B
:10012000230200082302000823020008230200081B
:10013000230200082302000823020008230200080B
:1001400023020008230200082302000823020008FB
:10015000DFF80CD000F02CFB00480047AD3E000853
:10016000F8700020204B19680868B0E8F00F80F3A1
:100170000988BFF36F8F4FF0000080F311884EF0B5
:100180000D0E70470000000006480068006880F30C
:10019000088862B661B6BFF34F8FBFF36F8F00DF81
:1001A00000BF00BF08ED00E0EFF30980BFF36F8FE1
:1001B0000D4B1A6820E9F00F106008B54FF01000E1
:1001C00080F3118805F068F84FF0000080F3118883
:1001D000BDE8084019680868B0E8F00F80F30988A6
:1001E000BFF36F8F704700BF5C000020EFF31180FA
:1001F0004FF0100181F31188704780F31188704728
:10020000EFF3058070470000064880470648004726
:10021000FEE7FEE7FEE7FEE7FEE7FEE7FEE7FEE7B6
:10022000FEE7FEE7C519000851010008F0B480EAB6
:100230000102D40F4200B2EB410F02D2024608463F
:1002400011464A0042D0C30DDDB2C1F3C752AD1A08
:10025000202D35DAC1F3160141F4000204B15242F7
:10026000C5F1200602FA06F12A411044B3EBD05F33
:1002700023D0C4B1012DA0EBC35009DCF0BC4FF07A
:10028000004202EAC352DBB200F5000000F004BAFB
:10029000400000F1807000EBC350A0F1807040EA94
:1002A000D170490009E0490841EAC071A0EBC35090
:1002B00000F50000400800EBC350F0BC00F0E3B9CB
:1002C0006142012202EB4101001BF6E7F0BC7047DE
:1002D00081F00041AAE780F00040A7E780EA010230
:1002E00010B502F00043400022D04A001FD0010E9A
:1002F00001EB1261C0F35600C2F3560240F4000055
:1003000042F40002A0FB022000047F39140400D054
:10031000401C50EA124001D44000491EC2B20C06F3
:1003200004EBD010401C4008802A02D003E00020DB
:1003300010BD20F00100002900DA0020184310BD94
:10034000420005D0C0F3C7525242914201DC002066
:10035000704700EBC15070472DE9FE4F804681EA9F
:100360000300C00F0C46009021F0004123F000452F
:10037000B8EB0200A94105D24046214690461C46F2
:100380000B46024623F00040104347D0270DC7F329
:100390000A00C3F30A510290401A019040286BDA18
:1003A000C3F3130040F4801B0098924620B1002351
:1003B000D2EB030A63EB0B0B01985946C0F14002E4
:1003C000504600F03FF906460D4650465946019A00
:1003D00000F047F910EB08006141002487EA115250
:1003E00084EAE7731A4340D0009A62B3019A012A63
:1003F0004FEA075215DC001B61EB02014FF000428F
:1004000002EA0752CDE90042001C41F58011324654
:100410002B4600F07EF903B0BDE8F08F4046214640
:10042000F9E7001B61EB0201001C41F58013001885
:100430005B412018A2F5001747EB030140EAD57095
:10044000B6196D4111E06D084FEA360645EAC075F0
:100450004FEA0752001B61EB0201001C41F58011BD
:1004600049084FEA30000019514132462B4603B08B
:10047000BDE8F04F00F03EB9009801224000002393
:10048000D0EB020263EBE073009821464FEAE07480
:10049000B8EB000061EB0401E9E783F000435BE7A0
:1004A00081F0004158E72DE9FE4F81EA030404F092
:1004B000004421F0004100944FF0000B23F0004372
:1004C00050EA01045ED052EA03045BD0C3F30A543D
:1004D000C1F30A552C44A4F2F3340194A0FB025456
:1004E000C1F3130141F48011C3F3130343F48013E8
:1004F00001FB024400FB034E840A970A44EA81543C
:1005000047EA8357A4FB076802958D0A05FB078518
:100510004FEA932C04FB0C542705029D4FEA065822
:1005200047EA1637B5EB08056EEB070C870E920EFF
:1005300047EA811742EA8312A7FB0201B6EB0B01DF
:1005400064EB00042B0D43EA0C335E1844EB1C50A3
:10055000DA465146E7FB0201C5F313044FEA0B33B9
:1005600043EA14534FEA0432019C43EA0603A4F120
:100570000C040294009CCDE900B400F0CAF803B06A
:10058000BDE8F08F00200146F9E7962300221146CE
:1005900000F082B820F00040C10DC0F3160040F416
:1005A00000007F2901DA00207047962903DCC1F1A1
:1005B0009601C840704796398840704700F0004265
:1005C00030F000400AD0C10D01F56071C0F3160093
:1005D00042EA0151C208400711437047002001461A
:1005E000704701F0004330B421F0004150EA0102AD
:1005F00006D00A0DA2F56072C1F31301002A02DCD5
:1006000030BC00207047440F44EAC104C100E01828
:1006100030BC00EBC25000F036B80000002801DB0F
:10062000C0F10040002901DBC1F100418142704767
:10063000002801DBC0F10040002901DBC1F10041CD
:1006400088427047202A04DB203A00FA02F1002099
:1006500070479140C2F1200320FA03F31943904000
:100660007047202A06DBCB17203A41FA02F043EA12
:10067000E07306E041FA02F3D040C2F1200291405B
:100680000843194670470029A8BF7047401C49001D
:1006900008BF20F00100704710B4B0FA80FC00FAE7
:1006A0000CF050EA010404BF10BC704749B1CCF112
:1006B000200421FA04F411FA0CF118BF012121439E
:1006C0000843A3EB0C01CB1D4FEA00614FEA102059
:1006D00042BF002010BC704700EBC35010440029FB
:1006E000A4BF10BC7047401C490008BF20F00100A7
:1006F00010BC704710B5141E73F1000408DA401CDA
:1007000041F1000192185B411A4301D120F0010030
:1007100010BD2DE9F04D92469B4611B1B1FA81F220
:1007200002E0B0FA80F220329046FFF78BFF0446D9
:100730000F4640EA0A0041EA0B0153465A46084375
:1007400013D0114653EA010019D0C8F140025046B7
:1007500000F040F805460E46504659464246FFF71F
:1007600071FF084305D0012004E020463946BDE86A
:10077000F08D0020054346EAE0762C4337430A9883
:100780006305E40AA0EB08000022FD0A44EA47548E
:100790000A3002D500200146E9E701051019694138
:1007A000DDE9084500196941BDE8F04DA2E7000008
:1007B000064C074D06E0E06840F0010394E80700AE
:1007C00098471034AC42F6D3FFF7C6FC78600008B7
:1007D00098600008202A04DB203A21FA02F0002168
:1007E000704721FA02F3D040C2F120029140084341
:1007F00019467047002904D0816841F001018160E9
:100800007047816821F001018160704730B591B077
:100810000121084600F0EAFF3E4D284600F052FA5A
:100820003D4801903D480290002403942821049102
:1008300005948021069149000791880008902020A6
:10084000099000020A900B9401A9284600F0B6FA1C
:100850000121284600F029FA0121480200F0E2FFB8
:1008600000212F4800F029F900212E4800F025F939
:1008700000212D4800F021F900212C4800F01DF93D
:100880000C9401208DF834008DF835004FF4602071
:100890000E900F9402208DF840001F4C0CA94C3C88
:1008A000204600F05FF8052301220A21204600F0CF
:1008B0007DF8052302220B21204600F077F805235E
:1008C00003220C21204600F071F8052304220D219B
:1008D000204600F06BF80121204600F029F80121A4
:1008E0002046FFF787FF204600F09AF8204600F0E8
:1008F00032F80028FAD1204600F0A3F8204600F094
:1009000023F80028FAD10121204600F08EF811B01A
:1009100030BD0000080002404C240140F0040020DB
:10092000D05F0008D85F0008E05F0008E85F0008BB
:10093000002904D0816841F480718160704781682A
:1009400021F4807181607047014600208968490761
:1009500000D501207047014600208968090700D5AD
:100960000120704710B542680E4B1A400C790B6895
:1009700042EA04221343436082680B4B1A40D1E9D8
:10098000024323434C7942EA440213438360C26A20
:1009900022F47002097C491EC9B242EA0151C162C7
:1009A00010BD0000FFFEF0FFFDF7F1FF70B5072658
:1009B00009290AD9C568A1F10A0404EB4404A64038
:1009C000B543A3401D43C56007E0056901EB410441
:1009D000A640B543A3401D4305611F23072A09D242
:1009E000446B521E02EB820293409C4391400C43A5
:1009F000446370BD0D2A09D2046BD21F02EB820240
:100A000093409C4391400C43046370BDC46A0D3A0B
:100A100002EB820293409C4391400C43C46270BD40
:100A2000816841F0080181607047002904D0816825
:100A300041F4A00181607047816821F4A0018160C8
:100A40007047816841F00401816070472DE9FE43E1
:100A50000746884616461D462821384600F02DF8E0
:100A60000121084600F0DEFE384600F02CFCC4B23E
:100A7000384600F075FC214600F034FB384600F0A3
:100A8000D2FB009000208DF804008DF80580012431
:100A90008DF80640684600F075FA384600F092FC82
:100AA0008DF808008DF809608DF80A508DF80B401C
:100AB00002A800F03BFDBDE8FE8338B504460D46B4
:100AC000204600F00DF8A088ADF800008DF8035026
:100AD00003208DF802006946206800F017FB38BD3E
:100AE000124A0168914201D104201CE0104A91424F
:100AF00001D1082017E00F4A914201D1102012E0E5
:100B00000D4A914201D120200DE00C4A914201D1C1
:100B1000402008E00A4A914201D1802003E0094ABE
:100B2000914200D18815012100F07CBE00080140EF
:100B3000000C014000100140001401400018014069
:100B4000001C0140002001402DE9FF4180460A9F22
:100B50000C4616461D46404600F028F8ADF8084001
:100B6000ADF804600021ADF80610ADF80A1001A937
:100B7000404601F0B3F901221146404601F044F825
:100B80000121404601F028F8404601F06FF98DF848
:100B900000008DF801508DF8027001208DF80300DF
:100BA000684600F0C3FCBDE8FF810000314988427F
:100BB00003D10121C01400F035BEB0F1804F06D042
:100BC0002D49884207D10121022000F01DBE0121DC
:100BD000084600F019BE2949884203D101210420AA
:100BE00000F012BE2649884203D10121082000F0FE
:100BF0000BBE2449884203D10121102000F004BE1D
:100C00002149884203D10121202000F0FDBD1F4968
:100C1000884203D10121401400F004BE1C498842DF
:100C200003D10121C80400F0FDBD1A49884203D157
:100C30000121080500F0F6BD1749884203D10121C2
:100C4000480500F0EFBD1549884203D1012140203D
:100C500000F0DABD1249884203D10121802000F062
:100C6000D3BD1049884203D10121801500F0CCBDCD
:100C700070470000002C01400004004000080040C4
:100C8000000C0040001000400014004000340140FF
:100C9000004C014000500140005401400018004049
:100CA000001C004000200040FEE7002904D001683D
:100CB00041F001010160704701684FF6FE7211407A
:100CC0000160704701684FF6FE721140016000211B
:100CD000016041608160C1603649364A08399042FE
:100CE00004D1486840F00F0048607047314A143220
:100CF000904204D1486840F0F000486070472D4AA7
:100D00002832904204D1486840F4706048607047CF
:100D1000284A3C32904204D1486840F47040486010
:100D20007047244A5032904204D1486840F4702001
:100D3000486070471F4A6432904204D1486840F4CA
:100D40007000486070471B4A7832904204D148686E
:100D500040F0706048607047174A111F904204D1FC
:100D6000086840F00F0008607047134A1432904240
:100D700004D1086840F0F000086070470E4A28323D
:100D8000904204D1086840F47060086070470A4AD5
:100D90003C32904204D1086840F4704008607047CB
:100DA000054A50329042FAD1086840F47020086039
:100DB00070470000080002400804024030B5026895
:100DC00047F6F0739A430C6A8B682343D1E90445D4
:100DD0002C4323438C692343CC6923434C6A23432C
:100DE0008C6A234313430360CA6842600A688260C6
:100DF0004968C16030BD704710B50C4800F013FA67
:100E000000F0B0F8002810D009480078012805D17A
:100E10000849094801F0BAFB06498860034800F018
:100E200002FABDE8104000F097B810BD1860000845
:100E30002C000020D80300200008004070B53D4879
:100E400000F0F1F900F08EF83B4C3C4D78B1207881
:100E5000022805D13A49284601F098FB38498860B4
:100E6000344800F0E0F9BDE8704000F075B835484E
:100E700000F0D9F900F076F888B12078032807D17E
:100E80002F492846283101F081FB2D4928318860FF
:100E90002C4800F0C8F9BDE8704000F05DB82A4861
:100EA00000F0C1F900F05EF888B12078042807D17D
:100EB00023492846503101F069FB214950318860AF
:100EC000214800F0B0F9BDE8704000F045B81F4877
:100ED00000F0A9F900F046F888B12078052807D17C
:100EE00017492846783101F051FB1549783188605F
:100EF000164800F098F9BDE8704000F02DB814488D
:100F000000F091F900F02EF8002811D02078062882
:100F100007D10B492846A03101F038FB0849A03120
:100F200088600B4800F07FF9BDE8704000F014B80D
:100F300070BD0000206000082C0000200008004068
:100F400000040020286000083060000838600008B5
:100F500040600008FFF772BF014908607047000059
:100F60001404014001460020054A12680A40044B5F
:100F700014331B680B4202D0002A00D001207047B6
:100F80000004014030B51B4A83790168002B2AD048
:100F900013688B431360111D0B680468A3430B6037
:100FA000017911440B68046823430B60114C083429
:100FB0002168036899432160231D19680568A943C6
:100FC00019604179102905D011440A68006802436C
:100FD0000A6030BD21680268114321601968006809
:100FE0000143196030BD0079104402688A430260F1
:100FF00030BD0000000401400149C8607047000096
:101000000020024070B505464FF43026304600F00F
:1010100059F8042811D1094C206940F002002061E0
:101020006561206940F040002061304600F04AF8D8
:10103000216941F6FD721140216170BD002002401E
:1010400004200849CA68D20701D001207047CA6845
:10105000520701D502207047C968C906FBD5032095
:1010600070470000002002400248016941F0800101
:101070000161704700200240F0B506460D464FF46E
:101080000057384600F01EF804280CD1064C2069A1
:1010900040F0010020613580384600F013F82169E6
:1010A000BA1E11402161F0BD0020024003480249F0
:1010B00041600349416070472301674500200240B9
:1010C000AB89EFCD00B50346FFF7BAFF02E0FFF7AB
:1010D000B7FF5B1E012801D1002BF8D1002B00D1F6
:1010E000052000BD10B58A07120F0F23934021F091
:1010F0000304054921448C689C438C608B689040B4
:1011000003438B6010BD0000000001402DE9F04159
:101110000022CC7804F00F03E40601D58C78234339
:101120000C784FF00F0714F0FF0F4FF0010C1CD09C
:1011300005680CFA02F40E882640A64211D19600EA
:1011400007FA06F825EA080503FA06F848EA05054D
:10115000CE78282E02D0482E02D002E0446100E072
:101160000461521C082AE4D305600A88FF2A1ED9AC
:101170004568002202F108060CFA06F40E882640A3
:10118000A64210D1960007FA06F825EA080503FAE8
:1011900006F848EA0505CE78282E00D14461CE78BD
:1011A000482E00D10461521C082AE3D34560BDE8F3
:1011B000F0810000F0B5154C002801DAE36900E089
:1011C0006368C0F30346420D120185B2C0F30157B4
:1011D0009540032F07D0C2020CD50322B24093439F
:1011E00043F0706209E023F07062636823F070637B
:1011F000636002E0AB4343F0706201B12A43002810
:1012000001DAE261F0BD6260F0BD00000000014063
:101210000246002092680A4200D0012070474161D6
:1012200070470161704741684FF4807291423ED02F
:1012300014DC102935D009DC01292CD002292CD04E
:1012400004292CD0082900D10820704720292AD051
:1012500040292AD08029F8D1802070474FF480524D
:1012600091422AD00BDC4FF40072914221D05200FF
:10127000914220D052009142EFD1104670474FF476
:10128000005291421BD0520091421AD0520091421A
:10129000F4D11046704701207047022070470420A7
:1012A000704710207047202070474020704710463C
:1012B00070471046704710467047104670471046FA
:1012C0007047104670474168B1F5807F3BD014DC11
:1012D000102932D009DC012929D0022929D004297A
:1012E00029D0082900D103207047202927D0402980
:1012F00027D08029F8D107207047B1F5805F28D02A
:101300000ADCB1F5007F20D0B1F5806F1FD0B1F5B8
:10131000006FF1D10B207047B1F5005F1BD0B1F524
:10132000804F1AD0B1F5004FF5D10F207047002043
:101330007047012070470220704704207047052045
:1013400070470620704708207047092070470A2020
:1013500070470C2070470D2070470E20704700002A
:10136000114A0168914201D1002070470F4A914211
:1013700001D1012070470E4A914201D102207047ED
:101380000C4A914201D1032070470B4A914201D18E
:1013900004207047094A914201D105207047084A4C
:1013A0009142FBD10620704700080140000C01402B
:1013B000001001400014014000180140001C0140D1
:1013C000002001404168B1F5807F3BD014DC10293A
:1013D00032D009DC012929D0022929D0042929D0B9
:1013E000082900D109207047202927D0402927D07B
:1013F0008029F8D117207047B1F5805F28D00ADC2A
:10140000B1F5007F20D0B1F5806F1FD0B1F5006F2E
:10141000F1D128207047B1F5005F1BD0B1F5804FA6
:101420001AD0B1F5004FF5D128207047062070473B
:1014300007207047082070470A2070471720704720
:1014400017207047172070471720704728207047D3
:1014500028207047282070472820704708B504F0DE
:10146000EBF800900B4D0C4E0C4F0D4C6421684670
:1014700003F09EFED5F89C01C043C5F89C01D4E959
:10148000000132463B46FEF767FFC4E9000102F067
:10149000E1FEEBE7008022429A9999999999B93F28
:1014A000000000201FB500F017F800200649CDE924
:1014B00001100222034600920390120203A1054884
:1014C00004F040F81FBD0000EC000020574F524BC5
:1014D000000000005D14000802F028BD06A30020F3
:1014E000104C211F1A5C22800A885206FCD5401C31
:1014F000C0B22A28F6D3FEE70D0A456E7465722045
:10150000486172644661756C745F48616E646C65B5
:10151000722C2053797374656D2048616C742E0DA4
:101520000A00000004380140FEE7704770B50F2341
:10153000C27801260178002A1ED0144A126802F4EB
:10154000E062C2F5E062120AC2F10404D3404578B9
:10155000A54082781A402A43120101F1E02181F866
:101560000024007800F01F018E404009800000F147
:10157000E020C0F8006170BD01F01F0086404809FE
:10158000800000F1E020C0F8806170BD0CED00E04B
:101590000249084302490860704700000000FA054C
:1015A0000CED00E010B50021054B0022814202D075
:1015B00003EB8104E260491CC9B20629F6D310BDD1
:1015C000C000002070B5002505F1B000C0B20021B8
:1015D00000F0D2F80021084600F0CEF800211020DB
:1015E00000F0CAF800240121002000F0C5F8641CB6
:1015F000E4B2802CF7D36D1CEDB2082DE4D370BD9E
:10160000002205E00021491CC9B20629FBD3521C67
:101610008242F7D3704710B50446B031C8B20021FA
:1016200000F0AAF8102040EA1410002100F0A4F8FD
:1016300004F00F00BDE81040002100F09DB800004C
:101640002DE9F04180460F460024203AD5B2B8F18A
:101650007F0F02D9A046BF1CFFB2102B12D0394613
:101660004046FFF7D8FF184905EB450001EB400560
:101670000121285D00F080F8641CE4B2062CF7D349
:10168000BDE8F08139464046FFF7C5FF0F4E04EB39
:1016900005100121305C00F06FF8641CE4B2082CE6
:1016A000F5D37F1CF9B24046FFF7B5FF002404EBE9
:1016B000051030440121007A00F05EF8641CE4B2A9
:1016C000082CF4D3DCE70000B8570008E059000804
:1016D0002DE9F05F8046DDF828A08B4691461D4637
:1016E000002600244FEA5A071DE0281B401EC1B205
:1016F0000A2002F085FEB9FBF0F00A21B0FBF1F2FE
:1017000001FB120026B9691E8C4201DA78B101266C
:101710003030C2B207FB0480C0B253465946FFF7CF
:101720008FFF641CE4B2AC42DFD3BDE8F09F07FB3F
:101730000480C0B2534620225946FFF781FFF0E7EC
:101740002DE9F04104460E461746984600250DE067
:10175000434631462046FFF773FF0834E4B2782C45
:1017600002D90024B61CF6B26D1CEDB27A5D002AD7
:10177000EED1BDE8F08100002DE9F0470546DFF825
:1017800064904FF48068002904D041464846FFF732
:1017900048FD03E041464846FFF741FD0024124F53
:1017A0004FF4006631463846FFF739FD280604D568
:1017B00041463846FFF735FD03E041463846FFF71E
:1017C0002EFD31463846FFF72CFD6806050E641CD9
:1017D000E4B2082CE6D341464846BDE8F047FFF79F
:1017E00020BD00000010014000140140054A0029FE
:1017F00003D051690143516170475169814351617F
:101800007047000000100240054A002903D0D1694A
:101810000143D1617047D1698143D16170470000B4
:1018200000100240054A002903D0916901439161EB
:101830007047916981439161704700000010024038
:1018400010B5264A516801F00C01254B002927D01C
:10185000042927D0082927D00360516801F0F0013E
:101860000909204B5C5C0168E1404160546804F464
:10187000E064240A1C5D21FA04F48460546804F4D2
:101880006054E40A1B5DD940C160526802F44042D2
:10189000920B144B1B1F9A5CB1FBF2F1016110BD5E
:1018A0000360DAE70360D8E7516801F47011536808
:1018B00003F48033022404EB914133B153689B035A
:1018C00007D5094B59430160C7E7074B59430160EE
:1018D000C3E7034B59430160BFE70000001002401B
:1018E00000127A004C00002000093D00AFF3008098
:1018F0000CB50022019200922748016841F4803122
:1019000001604FF4A063016801F400310091019976
:10191000491C0191009911B901999942F3D10168CB
:10192000890302D50121009100E00092009901296C
:1019300030D11A490A6842F010020A600A6822F09F
:1019400003020A600A6842F002020A6041684160CC
:1019500041684160416841F480614160416821F41F
:101960007C114160416841F4E8114160016841F037
:101970008071016001688901FCD5416821F0030193
:101980004160416841F0020141604168C1F3810159
:101990000229FAD10CBD00000010024000200240D4
:1019A00010B5FEF723FC03F04DFE18B104494FF0CB
:1019B00080500860BDE810400020FEF71EBC00000B
:1019C00004ED00E010B50F48016841F0010101602D
:1019D00041680D4A1140416001680C4A11400160A4
:1019E000016821F480210160416821F4FE01416019
:1019F0004FF41F018160FFF779FF05494FF0006048
:101A0000086010BD001002400000FFF8FFFFF6FE66
:101A100008ED00E038B501210220FFF7F5FE0121B5
:101A20001020FFF7FFFE01211248FFF7C3FB4FF420
:101A30007070ADF8000018258DF8035003248DF860
:101A4000024069460C48FFF761FB01210846FFF799
:101A5000DBFE01210420FFF7E5FE0120ADF80000C8
:101A60008DF803508DF8024069460448FFF74EFB9D
:101A700038BD0000000C1A000010014000080140B1
:101A80002DE9F04387B04FF48277FA25FA2640F625
:101A90007F40ADF8140040F2C110ADF810000024F2
:101AA000ADF81640ADF812404FF0804804A940460A
:101AB00000F014FADFF8A49004A9484600F00EFAEA
:101AC0006020ADF800000120ADF80200ADF808403C
:101AD000ADF806406946484600F0A0F8082148469F
:101AE00000F0E0F8ADF806406946484600F0E0F83E
:101AF0000821484600F020F9ADF8067069464846CE
:101B000000F024F90821484600F062F9ADF80650CB
:101B10006946484600F062F90821484600F092F90B
:101B2000ADF806606946404600F078F80821404666
:101B300000F0B8F80121404600F03CF80121484689
:101B400000F038F80121404600F046F801214846EF
:101B500000F042F807B0BDE8F08300000004004048
:101B600010B5124C0121204600F042F800281CD08C
:101B70000121204600F02DF80D484168491C4160C4
:101B800028304168491C416028304168491C416047
:101B900028304168491C416028304168491C416037
:101BA00000F128014868401C486010BD0008004052
:101BB000D8030020002904D0018841F08001018071
:101BC0007047018821F0800101807047C94301827C
:101BD0007047C94301827047002904D0018841F051
:101BE000010101807047018821F0010101807047E7
:101BF00002460020138A0B4092890A40002B02D033
:101C0000002A00D001207047002A03D082890A43AD
:101C10008281704782898A438281704730B5028C05
:101C200022F001020284028C8388048B24F0700469
:101C300024F003050C882C4322F002020D89154381
:101C40004A882A43124DA8420BD0124DA84208D010
:101C5000114DA84205D0114DA84202D0104DA84206
:101C60000FD122F008054A892A4322F004058A8808
:101C70002A4323F4807323F400738D891D43CB8999
:101C80002B4383800483C9888186028430BD000091
:101C9000002C01400034014000400140004401405C
:101CA00000480140028B22F008020A430283704779
:101CB00070B5028C22F010020284028C8388048B9F
:101CC00024F4E04424F440760D884FF6FF7404EACF
:101CD0000525354322F020020E8904EA0616164334
:101CE0004A8804EA02123243114EB04202D0114E29
:101CF000B04217D122F080024E8904EA061616433C
:101D000026F040068A8804EA0212324323F48063F4
:101D100023F400638E8904EA86061E43CB8904EA15
:101D20008303334383800583C9880187028470BDA0
:101D3000002C014000340140028B22F400624FF677
:101D4000FF7303EA012111430183704770B5028CD0
:101D500022F480720284028C8388848B24F07004C5
:101D600024F003040D88254322F400720E894FF6F7
:101D7000FF7404EA062616434A8804EA0222324324
:101D8000114EB04202D0114EB04217D122F400667B
:101D90004A8904EA0222324322F480668A8804EAED
:101DA0000222324323F4805323F400538E8904EA41
:101DB00006161E43CB8904EA0313334383808583CD
:101DC000C9888187028470BD002C01400034014025
:101DD000828B22F008020A438283704770B5028C1E
:101DE00022F480520284058C8288838B23F4E043A2
:101DF00023F440760C884FF6FF7303EA042434433F
:101E000025F400550E8903EA06362E434D8803EA71
:101E100005353543094EB04202D0094EB04205D1D6
:101E200022F480468A8903EA8212324382808483C4
:101E3000C988A0F84010058470BD0000002C014046
:101E400000340140828B22F400624FF6FF7303EAF4
:101E50000121114381837047818670470187704754
:101E600081877047A0F84010704700000146B1F12B
:101E7000804F04D0124A914203D11D2070471C208C
:101E80007047104A914201D11E2070470E4A91427C
:101E900001D1322070470D4A914201D1362070475E
:101EA0000B4A914201D1372070470A4A914201D131
:101EB00019207047084A9142FBD12C20704700003E
:101EC0000004004000080040000C004000100040EA
:101ED00000140040002C01400034014030B502885D
:101EE0001B4C1C4DA0420DD0A8420BD0B0F1804F2E
:101EF00008D0194B984205D0184B984202D0184B85
:101F0000984203D122F070034A881A43154B984235
:101F100006D0154B984203D022F44073CA881A4366
:101F200002808A8882850A880285A0420AD0A84257
:101F300008D00E4A904205D00D4A904202D00D4A78
:101F4000904201D1097A01860121818230BD0000D1
:101F5000002C014000340140000400400008004013
:101F6000000C004000100040001400400040014000
:101F7000004401400048014010B50A4C40F2255190
:101F8000204600F026F800280AD0204600F0BAF8D3
:101F9000054908702021204600F014F80028F9D1E6
:101FA00010BD00000038014047000020002904D087
:101FB000818941F4005181817047818921F4005168
:101FC000818170470246002012880A4200D0012019
:101FD000704770B5002440F66A12C1F3421301F055
:101FE0001F05012606FA05F2012B0CD0022B0DD09D
:101FF000838A1340090A8E40008830400BB100B13B
:102000000124204670BD83891340F3E7038A1340FF
:10201000F0E710B540F66A13C1F3421301F01F0454
:102020000121A140012B07D0022B07D014303AB177
:1020300002680A43026010BD0C30F8E71030F6E782
:1020400002688A43026010BD30B585B004460D4673
:10205000208A4CF6FF710840E98801432182A0895B
:102060004EF6F3110840A9882A8911436A89024370
:102070001143A181A08A4FF6FF410840A98901437D
:10208000A1826846FFF7DCFB1D48844201D103981A
:1020900000E00298A189090408D500EBC00101EB1A
:1020A000001029684900B0FBF1F007E000EBC00127
:1020B00001EB001029688900B0FBF1F06422B0FB4D
:1020C000F2F109010B096FF018056B4300EB830077
:1020D000A3891D044FF0320307D503EBC000B0FB0A
:1020E000F2F000F00700084306E003EB0010B0FB3D
:1020F000F2F000F00F000843208105B030BD000071
:10210000003801408088C0F308007047FEE702E015
:1021100008C8121F08C1002AFAD170477047002072
:1021200001E001C1121F002AFBD1704738B500231E
:1021300010241A4619460848009400F011F80123AB
:10214000002250210448009400F00AF803490320BB
:10215000896881F8700038BD380000200800002030
:10216000F8B50C46069E154650F82300FEF712FA05
:10217000C2B20423294620460096FFF7A9FAF8BD0B
:102180004FF08042012807D0022809D000280BD147
:1021900000211046FFF760BE89B21046FFF75CBE13
:1021A00089B21046FFF758BE70470000094A03285D
:1021B00007D0042809D000280BD100211046FFF7D2
:1021C00051BE89B21046FFF74DBE89B21046FFF7E7
:1021D00049BE704700040040094A012807D0022880
:1021E00009D000280BD100211046FFF739BE89B273
:1021F0001046FFF735BE89B21046FFF731BE704773
:102200000004004070B50124064E074D06EB840122
:1022100005EB4400022201F0C3F9641CE4B21D2C5A
:10222000F4D370BD1C0300200030030870B50024F7
:10223000064E074D06EB840105EB4400022201F037
:10224000C7F9641CE4B21D2CF4D370BD1C0300203C
:102250000030030810B501F046F901F08DFB00F0E5
:1022600025F8FFF71FF901F0CBF801F029F800F08D
:10227000CBF900F093F8BDE8104000F0A7BE0000D5
:10228000084A094B0128D26E06D0022809D1501AFB
:1022900081B21846FFF7E0BD501881B21846FFF72B
:1022A000DBBD70471C0300200004004010B51B4834
:1022B000022101604FF4FA61416081608161C16176
:1022C000C16001610162416241618162C162016379
:1022D00041638163C1630164052141640F2282640B
:1022E000C26401653221416581650166C16541664F
:1022F0008166C821C166016702220949094801F0C7
:102300004FF907480078FF2803D0BDE81040FFF7D9
:1023100079BFBDE81040FFF789BF00001C03002013
:102320001C00002000300308084A094B0128126FE6
:1023300006D0022809D1501881B21846FFF78EBD89
:10234000501A81B21846FFF789BD70471C03002060
:102350000004004005480121C17014224270017040
:10236000017141710021C17101F0FCBAD802002055
:1023700008B503F061F90090074C0121684602F0AE
:1023800017FF022000F02CF8012002F0E7FE0420E5
:102390002168FFF7F5FEF0E7280000201FB50024B4
:1023A0000948CDE901040321009123464FF400724E
:1023B000039406A1074803F0C5F8074804710749CC
:1023C000302008701FBD0000A8030020574F524B5B
:1023D0000000000071230008FA02002047000020DE
:1023E000002805D0012805D0022805D100F08ABEBA
:1023F00000F032BE00F084BE7047000008B50D4A00
:1024000001280CD0022809D12D2907D1906A00900B
:10241000D2E913130222104600F0F2FE08BD2D2966
:10242000FCD150690090D2E911130222104600F04D
:10243000E7FE08BD1C0300202DE9F04702244B4EA7
:10244000484FDFF82481DFF82891F56E012804D089
:1024500002282FD003285AD080E046488168464899
:102460008068FDF735FFB84209DD02210846FFF715
:1024700007FF02210120FFF757FF01246EE04045CE
:1024800009D902210120FFF7FBFE02210846FFF7D0
:102490004BFF012462E010F0FF4F5FD0A9B2484625
:1024A000FFF7DAFCB6F87010484689B2FFF7D6FCA1
:1024B000002453E03148816831488068FDF708FF07
:1024C000B84209DD02210120FFF7DAFE02210846A9
:1024D000FFF72AFF012441E0404509D902210846BF
:1024E000FFF7CEFE02210120FFF71EFF012435E099
:1024F00010F0FF4F32D0A9B24846FFF7ADFCB6F856
:102500007010484689B2FFF7A9FC002426E01D4858
:1025100081681D488068FDF7DBFEB84209DD0421B3
:102520000120FFF7ADFE06210120FFF7FDFE01248B
:1025300014E0404509D904210120FFF7A1FE06213E
:102540000120FFF7F1FE012408E00120716EFFF782
:1025500097FE0120B16EFFF7E7FE00242046BDE89C
:10256000F08700009A99993E9A9999BE1C03002021
:10257000000400405004002028040020A004002093
:102580007804002000040020D80300202DE9F04149
:1025900007460E460024304601F0DEFB01281ED01F
:1025A00000213846FFF718FB0F4D287890B13146CF
:1025B000384600F021F8FDF7E8FFFDF7FFFF0B4A72
:1025C0000B4BFDF770FFFEF70CF8044609488442F8
:1025D00000DD0446002028702046BDE8F081314629
:1025E000384600F02FF8F7E7460000209CC420B0E2
:1025F0007268913F0000964349684FF47A725143E4
:10260000808C0844704700001FB500200849CDE9C0
:10261000011003220346009203904FF4007205A1BB
:10262000064802F08FFF0649012008701FBD000018
:10263000B403002054494D455200000059260008BB
:102640002C000020002282844A60024A012111707D
:10265000FFF7C2BA4600002008B502F0EDFF009077
:102660002821684602F0A4FD00F004F8012002F0E1
:1026700075FDF5E7F0B5244D002401216E68234B6C
:102680002A464FF44870072E3AD2DFE806F03904A4
:102690000C151E2730001170C3F8A81101F07AFB49
:1026A000C3F8A8412CE002261670C3F8AC1101F063
:1026B00071FBC3F8AC4123E003261670C3F8B011D8
:1026C00001F068FBC3F8B0411AE004261670C3F8A5
:1026D000B41101F05FFBC3F8B44111E00526167098
:1026E000C3F8B81101F056FBC3F8B84108E006265C
:1026F0001670C3F8BC1101F04DFBC3F8BC416C600F
:102700006868401C6860F0BD2C0000200000234277
:1027100010B5054C012020604FF4487002F01EFDFA
:102720000020206010BD0000BC81224210B50224B0
:10273000154803C8FDF7CCFD1449884209DD0C217A
:102740000120FFF79DFD05210120FFF7EDFD01248C
:1027500018E00F49884209D905210120FFF790FDB3
:102760000C210120FFF7E0FD01240BE010F0FF4FEA
:1027700008D014210120FFF783FD14210120FFF769
:10278000D3FD0024204610BD380000200000204169
:10279000000020C108B502F04FFF009001216846FB
:1027A00002F006FD00F026FEF8E700002DE9F05FDC
:1027B000674C684FDFF8A081204694F809E00126B5
:1027C0000823B9688078654DDFF894A1D8F808200F
:1027D0004FF0150C4FF014094FF0050BBEF1010F2F
:1027E00015D0032871D071DC002870D001286FD07B
:1027F00002280AD184F800C05A48814205DA824290
:1028000003DA0E2020700320A070BDE8F09F052899
:102810004ED006DC0528F8D2DFE800F0141C29337E
:102820004600062849D007284CD0082851D06328F4
:10283000EBD1E07C012857D0A3710020A07084F870
:102840000090E2E70220FFF7F7FD28700028DCD1B6
:10285000A670DAE7022000F00FFFB8685045D4DA1E
:10286000D8F808005045D0DA0220A070CDE784F8EF
:1028700000C03D488142C8DA8242C6DA0320A07017
:10288000C3E7FFF753FF2870054684F80090D8F897
:102890000810B868FDF7CAFC34498842B5DA002D43
:1028A000B3D10420A070B0E7267084F802B0ACE782
:1028B000FFF72EFF0620A070A7E71020207007204A
:1028C000A070A2E72670A3709FE731E00FE01AE046
:1028D00021E00220FFF7B0FD287084F80090002866
:1028E00093D16320A07090E70920A071A5E7042888
:1028F00022D0052823D0632887D10020A07084F837
:102900000090A37181E70220FFF796FD2870002850
:1029100097D1A67079E7022000F0AEFEB868504566
:102920008FDAD8F8080050458BDA0220A0706CE7E7
:1029300026700420A07068E784F802B065E70220E2
:10294000FFF77AFD2870002890D16320A0705CE723
:10295000D8020020D803002000040020340000200A
:1029600000004842000088410000C8410000F041DA
:102970002DE9F05F864C00222046677C012502216C
:10298000DFF810B2142663238078012F09D00228C3
:1029900074D074DC002873D0012800D1A170BDE888
:1029A000F09F7D4FDFF8F491DFF8F4A1DFF8F481B8
:1029B0000A2876D00ADC4FF006020A28EFD2DFE8B8
:1029C00000F02225273644484B60646C4FF00E0C13
:1029D000102870D008DCA0F10B000528DFD2DFE85A
:1029E00000F06B82878B9500112878D0122877D061
:1029F000132876D06328D2D1E07E012872D0A1714D
:102A0000A2702670CBE72570A570C8E7A170C6E755
:102A1000022000F031FE6448DBF808108142BEDA83
:102A2000624989688142BADA0320A070B7E70220C0
:102A300000F022FEDBF808004045B0DD5B4880680E
:102A40004045ACDA0420A070A9E722700520A070F0
:102A5000A5E72570A270A2E7FFF768FE387005466B
:102A60002670DAF80810D9F80800FDF7DFFB4045BA
:102A700095DA002D93D10720A07090E775E06AE009
:102A800071E025700820A07089E7FFF741FE112052
:102A900020700920A07082E703E025700A20A07052
:102AA0007DE70120FFF7C8FC387026700028A9D107
:102AB0000B20A07073E737E0012000F0DDFD3C4AF9
:102AC000D9F8080090429DDDDAF80810914299DDAE
:102AD000404597DA414595DA0C20A0705FE728E081
:102AE0002BE032E034E0042020700D20A07056E787
:102AF000257084F802C052E70120FFF79DFC387072
:102B00002670002892D10F20A07048E71520207071
:102B10002548D9F80810814288DADAF8081081428D
:102B200084DA1020A0703AE784F800C01120A07069
:102B300035E725701220A07031E70220FFF77CFCFA
:102B4000387026701320A07029E72570A37026E73F
:102B50000920A07154E7032817D063288DD1A270F3
:102B60002670A1711BE7A57019E7022000F084FD13
:102B70001048DBF80810814286DD0C4989688142E3
:102B800089DA25700320A07009E7A37007E7000029
:102B9000D80200202804002034000020D8030020A0
:102BA000000400200000F041000088415004002093
:102BB0000000A0410000204270B5124CA07A01280C
:102BC0000AD1A078012540B1012817D0632803D18C
:102BD0000020A0700920A07170BD012000F04CFD04
:102BE00009480A4980688842F6DA09480949806834
:102BF0008842F1DA08202070A57070BD257063202E
:102C0000A07070BDD8020020D80300200000484208
:102C100000040020000020422DE9F05FA548A54AED
:102C20000125C47A02231521A34FDFF890821426D0
:102C3000DFF88CA292784FF0000C4FF004094FF0AF
:102C4000030B4FF0070E4FF47A70012C0BD0994C08
:102C5000072A72D072DC072A20D2DFE802F0C5DB37
:102C6000DEE2F0F6ED00934C072A6DD007DC072A70
:102C700014D2DFE802F021373A3E495165000B2AB1
:102C800076D00DDC082A65D0092A73D00A2A05D12E
:102C9000FFF73EFD0F2020700B20A070BDE8F09FD5
:102CA000612A10D0632AF9D1E07E012877D0A5717E
:102CB00084F802C02670F1E72170C82002F04EFAB5
:102CC0006120A070EAE7022000F0D6FCB8684FF05F
:102CD00084418842E2DAD8F808008842DEDA2570BA
:102CE000A570DBE72370A370D8E7257084F802B0E5
:102CF000D4E70220FFF7A0FB724908702670002875
:102D0000CCD184F80290C9E721704FF4487002F0EA
:102D100025FA0520A070C1E7012000F0ADFC6A484B
:102D2000DAF808108142B9DD684989688142B5DA6C
:102D300084F800900620A070B0E79BE03EE003E03E
:102D4000257084F802E0A9E7217002F007FA082054
:102D5000A070A3E7012000F08FFC5D48B9688142B4
:102D60009CDAD8F80810814298DA0920A07095E71B
:102D700016E0FFE7FFF7DAFC52498146087026703B
:102D8000D8F80810B868FDF751FA5249884285DA38
:102D9000B9F1000F82D125700A20A0707EE70AE009
:102DA0000120FFF749FB474908702670002889D1A8
:102DB0006320A07072E70920A07179E70B2A74D014
:102DC0000ADC082A5CD0092A6BD00A2A89D10F2094
:102DD00020700B20A07061E7612A0CD0632A87D194
:102DE00084F802C0A57159E72170C82002F0B6F935
:102DF0006120A07052E7022000F03EFCB8684FF05E
:102E00008441884287DAD8F80800884294DA25702D
:102E1000A57043E72370A37040E7257084F802B0E3
:102E20003CE70220FFF708FB2649087026700028BF
:102E300089D184F8029031E718E006E0FFE72170BD
:102E400002F08CF90520A07028E7012000F014FCA6
:102E50002048DAF80810814289DD1C4989688142DE
:102E600085DA84F800900620A07017E7257084F8B2
:102E700002E013E7217002F071F90820A0700DE75D
:102E8000012000F0F9FB26701148B968814285DA0B
:102E9000D8F8081081428DDA0920A070FEE604E01F
:102EA000FFE725700A20A070F8E625706320A07067
:102EB000F4E60000D8020020D8030020000400201F
:102EC000780400203400002000002042A0040020EC
:102ED0000000B0410000F04138B50A46294C0128F5
:102EE00013D0022810D120462D2AD0E9131341D047
:102EF0005A2A31D0872A36D0B42A05D1E069012276
:102F00000090104600F07CF938BD1E482D2AD0E90B
:102F100011131AD05A2A0AD0872A0FD0B42AF3D113
:102F2000A06801220090104600F06AF938BD606880
:102F300001220090104600F063F938BDE0680122DC
:102F40000090104600F05CF938BD20690122009025
:102F5000104600F055F938BDA069012200901046D6
:102F600000F04EF938BD206A01220090104600F0B2
:102F700047F938BD606A01220090104600F040F920
:102F800038BD00001C03002010B508484078152803
:102F90000AD0074C0120616EFFF772F9A16EBDE8FF
:102FA00010400120FFF7C0B910BD0000D80200207A
:102FB0001C03002008B502F03FFB00900521684685
:102FC00002F0F6F800F01AF8F8E700001FB500204C
:102FD0000649CDE9011006220346009203904FF402
:102FE000007203A1044802F0ADFA1FBD9C0300204B
:102FF000494E505554000000B52F000810B500F0A0
:103000006DFC00F02FFC02488168491D816010BDF5
:103010009C03002030B50F4C01222046637CC17A0E
:10302000807A002B03D111B908B9657A0DB113B1BB
:1030300003E0227730BD01B908B111B102E0E274BA
:1030400030BD10B118B1227530BDE27630BD627569
:1030500030BD0000D802002007480079002805D0C4
:10306000012805D0022805D100F008B8FFF772B991
:1030700000F020B870470000D80200200C484179C9
:10308000012914D1C179002911D0807909280ED2E3
:10309000DFE800F0050B090D0D0D0D0D0700FFF722
:1030A00085BBFFF765BCFFF7B7BDFFF785BD704770
:1030B000D802002010B5114CE07901281CD1002164
:1030C000A17102202071A17000202218D174401C2F
:1030D0000928FADB002022185172401C0928FADB6B
:1030E000012060726074E072A072FFF793FF207F8E
:1030F000012801D10920A07110BD0000D8020020D4
:103100007047000007480079002805D0012805D045
:10311000022805D100F00EB800F006B800F010B893
:1031200070470000FA020020014901200871704731
:10313000FA0200200148007802F0DAB847000020C7
:1031400003490220087103493020087070470000CD
:10315000FA02002047000020F8B50A46264B012855
:1031600003F12C03F0CB12D002280FD122482D2AD4
:10317000D0E917312ED05A2A32D0872A36D0B42A35
:1031800004D102220120009700F03AF8F8BD1A4855
:103190002D2AD0E915130BD05A2A0FD0872A13D025
:1031A000B42AF3D101220220009700F029F8F8BDDB
:1031B00001220220009400F023F8F8BD0122022031
:1031C000009500F01DF8F8BD01220220009600F0E5
:1031D00017F8F8BD02220120009400F011F8F8BDA4
:1031E00002220120009500F00BF8F8BD0222012018
:1031F000009600F005F8F8BD1C03002070470000A1
:103200002DE9F8438046894616461F46089C02F081
:1032100013FA00904FF47A704443B4FBF0F4114D6C
:10322000687901281BD10020687149464046FFF7A4
:1032300027F839463046FFF777F82146684601F00F
:10324000B7FF094C094E208881B23046FEF704FED4
:10325000A188304689B2FEF701FE01206871BDE801
:10326000F8830000D80200208803002000040040FA
:1032700070B50948407801280DD0084C084D2088C9
:1032800081B22846FEF7E8FDA1882846BDE87040D7
:1032900089B2FEF7E3BD70BDD8020020880300208C
:1032A0000004004008B502F0C7F90090012168460B
:1032B00001F07EFF00F01CF8012001F04FFFF5E760
:1032C0001FB500200649CDE90110052203460092F2
:1032D00003904FF4007203A1044802F033F91FBDBC
:1032E0009003002057616C6B00000000A5320008BD
:1032F00010B53F4C207817286FD2DFE800F06E0C35
:103300000F14191E23282D32373C4155465A4B5F66
:1033100050646E696C00FFF7ABFF5EE05A2101203C
:10332000FFF7DAFD59E0B4210120FFF7D5FD54E0A5
:103330005A210220FFF7D0FD4FE0B4210220FFF711
:10334000CBFD4AE087210120FFF7C6FD45E02D2196
:103350000120FFF7C1FD40E087210220FFF7BCFDFF
:103360003BE02D210220FFF7B7FD36E02D210120A3
:10337000FFF744F831E02D210220FFF73FF82CE061
:103380002D210120FFF7E8FE27E05A210120FFF759
:10339000E3FE22E087210120FFF7DEFE1DE0B421DD
:1033A0000120FFF7D9FE18E02D210220FFF7D4FEFF
:1033B00013E05A210220FFF7CFFE0EE08721022002
:1033C000FFF7CAFE09E0B4210220FFF7C5FE04E0C2
:1033D000FFF7DAFD01E0FFF711FF20786070E17878
:1033E000002903D1152801D00120207010BD000054
:1033F000D8020020014800F02BBD0000380000205A
:103400001FB500200649CDE90110032203460092B2
:1034100003904FF4007203A1034802F093F81FBD1C
:10342000C0030020414443009527000810B5042044
:10343000FEF7B8F81048114C806890F87010022917
:103440000AD0062908D0042906D0E06958B10C2812
:103450000ED9C0070AD00BE0416FC07851F82000A8
:1034600030B1804704E000F00BF801E000F008F80C
:10347000E069401CE06110BD08000020C000002091
:1034800010B5074CA068C16E002904D000F0D8FE2A
:10349000A068C06EA060BDE8104001F03BBA00001B
:1034A000080000200D4B8118994201D90320704774
:1034B00012B10123002109E0002070470378FF2B9F
:1034C00001D0022070470023401C491C9142F5D3D3
:1034D000012B01D001207047002070470000040834
:1034E0006FF30A00704710B54FF44070FEF750F8C4
:1034F000BDE81040AFF3008038B501218020FEF711
:1035000091F9012000F030F8022000F02DF803209E
:1035100000F02AF8042000F027F803208DF80200BC
:1035200010208DF80300C001ADF800000D4C694675
:103530002046FDF7EBFD8021ADF8001069462046DE
:10354000FDF7E4FDA115ADF8001069462046FDF732
:10355000DDFD6115ADF8001069462046FDF7D6FD8A
:1035600038BD0000001C0140401EC0B20B490028BD
:1035700008D001280AD002280BD0032801D1481511
:10358000086070474FF40060086070478020086052
:1035900070474FF48070086070470000101C0140B5
:1035A00010B50A4C8318A34201D9012010BD0AB1FD
:1035B000002306E0012010BD10F8014B01F8014B7B
:1035C0005B1C9342F8D3002010BD000000000408EB
:1035D0002DE9F04107468846164604252549B819C5
:1035E000884202D90120BDE8F0811EB1F00703D066
:1035F0000120F8E70020F6E7324641463846FFF75B
:1036000051FF044654B1012080F31088FDF74EFDB0
:103610003520FDF7F1FC022C02D00BE00020E2E7A0
:103620003846FFF75DFFFDF7EDFC0546042D01D0A0
:103630000220D8E700240EE018F8140008EB44013B
:10364000497840EA01213846FDF716FD0546042D6C
:1036500004D1BF1C641CB4EB560FEDD3FDF704FD81
:10366000002080F31088042D01D00220BBE7002049
:10367000B9E70000000004082DE9F0473C4FDFF8EF
:10368000F4803D4C3D4E012829D03D4FDFF8F480B9
:1036900002286BD1BD68D8F8089029464846FCF747
:1036A00017FEFCF78BFF21F00041FCF79AFF7060DA
:1036B0000221FCF745FEFCF76DFF306029464846C5
:1036C000FCF7B6FF40D20120616EFEF7D9FDA06E77
:1036D0003168BDE8F047411A0120FEF725BEBD68FC
:1036E000D8F8089029464846FCF7F2FDFCF766FF3B
:1036F00021F00041FCF775FF70600221FCF720FE0D
:10370000FCF748FF306029464846FCF791FF09D294
:10371000606E3168411A0120FEF7B2FD0120A16EF2
:10372000FEF702FEB968D8F80800FCF777FF1DD253
:103730000120616EFEF7A4FDA06E3168BDE8F04780
:10374000411A0120FEF7F0BDB968D8F80800FCF76F
:1037500065FF0BD2606E3168411A0120FEF790FDC3
:10376000A16EBDE8F0470120FEF7DEBDBDE8F087A1
:1037700050040020280400201C030020200000200A
:10378000A00400207804002010B50320FDF70AFFF4
:103790001548164C806890F8701002291BD0062935
:1037A00019D0042917D08278C178521E91420AD0CC
:1037B000491CCAB2C27041788A4204D9491C41707E
:1037C0000178491C0170012180F87010A180A06966
:1037D000401CA06110BD416FC07851F82000002846
:1037E000F5D08047F3E7000008000020C00000206B
:1037F00000B51A49002801D000200870087808B1E7
:10380000002000BD01200870154B991D184600F0DE
:1038100051F808B1012000BDD91D581C00F04AF82C
:1038200008B1022000BD0E49981C083100F042F892
:1038300008B1032000BD0A49D81C093100F03AF84C
:1038400008B1042000BD0649181D0A3100F032F805
:1038500008B1052000BD002000BD0000450000208B
:10386000CC03002070B5104D04212846FDF7D0FC94
:103870000E4C207002212846FDF7CAFCE070202182
:103880000B48FDF7C5FC607008212846FDF7C0FC19
:10389000A07001212846FDF7BBFC20710120FFF735
:1038A000A7FFE07270BD000000180140CC030020AB
:1038B00000080140024600201278002A02D0012AA6
:1038C00006D103E00A78521C0A7001E000220A7057
:1038D00009780A2900D901207047000070B50E4D03
:1038E00040212846FDF794FC0C4C207020212846EE
:1038F000FDF78EFC607010212846FDF789FCA07052
:1039000008212846FDF784FCE07004212846FDF7D5
:103910007FFC207170BD00000018014040000020B5
:1039200070B510210A48FDF7C8F810210948FDF7C5
:10393000C4F8094C00252560656010210748FDF793
:10394000BCF810210648FDF7B8F8A560E56070BD29
:10395000F85F000800600008B0812242086000089B
:103960001060000803480021016041608160C1606F
:1039700070470000B081224210B500F04DF800F011
:103980001FF9FCF743FF00F055F900F04BF900F088
:103990000DF800F00DF801F001FDBDE81040102118
:1039A0000148FDF78AB80000F05F0008FFF7B8BFD4
:1039B00038B501216420FDF735FF03208DF80200A2
:1039C00048208DF803000420ADF80000104C694633
:1039D0002046FDF79BFB0221ADF80010694620460A
:1039E000FDF794FB2021ADF8001069460948FDF76A
:1039F0008DFB0821ADF8001069462046FDF786FBD7
:103A00000121ADF8001069462046FDF77FFB38BD67
:103A10000018014000080140F8B501213020FDF7F1
:103A200001FF10208DF8030003208DF802004FF4F1
:103A30000064ADF80040604E69463046FDF766FB15
:103A40006510ADF8005069463046FDF75FFBADF8F4
:103A500000405A4F69463846FDF758FBADF8005014
:103A600069463846FDF752FB21463046FDF7D9FB43
:103A700029463046FDF7D5FB21463846FDF7D1FBF8
:103A800029463846FDF7CDFB21463046FDF7C9FBF8
:103A900042F210752846FDF7B3FD21463046FDF78A
:103AA000BEFB2846FDF7ACFD21463046FDF7B9FBCD
:103AB0000021AE20FDF760FE00210220FDF75CFE34
:103AC00000211020FDF758FE00214020FDF754FE94
:103AD00000218120FDF750FE0021CF20FDF74CFE94
:103AE0000021A120FDF748FE0021C820FDF744FE7B
:103AF0000021A620FDF740FE0021A820FDF73CFE96
:103B000000213F20FDF738FE00218120FDF734FE23
:103B10000021FF20FDF730FE0021D320FDF72CFE11
:103B200000210846FDF728FE0021D520FDF724FEE0
:103B300000218020FDF720FE0021D920FDF71CFE8A
:103B40000021F120FDF718FE0021DA20FDF714FE18
:103B500000211220FDF710FE0021DB20FDF70CFEF6
:103B600000214020FDF708FE00212020FDF704FE83
:103B700000210220FDF700FE00218D20FDF7FCFD55
:103B800000211420FDF7F8FD0021A420FDF7F4FD2D
:103B90000021A620FDF7F0FD0021AF20FDF7ECFD90
:103BA0000021AF20FDF7E8FDFDF70CFD00210846E0
:103BB000FDF731FDF8BD0000001001400014014088
:103BC00038B501214020FDF72DFE03208DF80200BD
:103BD00048208DF803004020ADF80000104C6946E5
:103BE0002046FDF793FA2021ADF8001069462046E3
:103BF000FDF78CFA1021ADF8001069462046FDF75C
:103C000085FA0821ADF8001069462046FDF77EFAD6
:103C10000421ADF8001069462046FDF777FA38BD5B
:103C20000018014010B5FDF7F5FEBDE81040FDF7A6
:103C300027BF000038B510213948FCF73EFF282186
:103C40003848FCF73AFF10213748FCF736FF2821A7
:103C50003648FCF732FF10213548FCF72EFF2821AB
:103C60003448FCF72AFF10213348FCF726FF2821AF
:103C70003248FCF722FF10213148FCF71EFF2821B3
:103C80003048FCF71AFF10212F48FCF716FF2821B7
:103C90002E48FCF712FF2E4D0024042347224FF636
:103CA000FF7128460094FCF74FFF002303221021E8
:103CB0001C48FCF7CBFE0023032210211B48FCF715
:103CC000C5FE0023032210211A48FCF7BFFE002383
:103CD000032210211948FCF7B9FE0023032210210A
:103CE0001848FCF7B3FE0023032210211748FCF705
:103CF000ADFE01212846FDF769FF00212846FDF7AA
:103D00006BFF1348243004801248046044608460D0
:103D1000C46004614461BDE8384000F047B8000069
:103D20004860000818600008506000082060000823
:103D300058600008286000086060000830600008D3
:103D40006860000838600008706000084060000883
:103D500000080040A801234202680D49072A07D243
:103D6000DFE802F00604070A0D101300D1F8100175
:103D70007047D1F814017047D1F818017047D1F895
:103D80001C017047D1F820017047D1F82401704719
:103D900000002342002205E00021491CC9B2062987
:103DA000FBD3521C8242F7D370470000094901201F
:103DB00008600220283108600320283108600420B0
:103DC0002831086005202831086006202831086065
:103DD00070470000D803002010B50120FDF7E2FB7A
:103DE0000E480F4C806890F8700002280AD0062810
:103DF00008D0042806D0206938B10C280AD9C00799
:103E000006D007E000F00EF804E000F00BF801E047
:103E100000F008F82069401C206110BD0800002057
:103E2000C0000020094B9868C278816E51F82210BA
:103E3000002904D09960012081F870007047406F1C
:103E400050F822000028F9D00047000008000020A8
:103E50002DE9F041804600260025114F002407EB94
:103E6000C40030F81500FCF790FB3146FCF7DEF992
:103E70000646641C0A2CF2DB0A493046FCF72EFA8F
:103E80006FF00B01FCF75CFA0749FCF727FA48F8DA
:103E9000250000266D1C022DE0DBBDE8F08100004E
:103EA000F0040020CDCCCC3D0000FA4310B5012039
:103EB00080F31088FEF7CEF901F0BCF9002010BDA8
:103EC000F0B50B30154D20F007010024144A0FE027
:103ED00003688B420BD38B4205D95E1A431847689F
:103EE000C3E9006700E04368136002C004E0021DFC
:103EF00010680028ECD12046002802D1286808B1BB
:103F00000020F0BD064A07481060074A121A22F046
:103F10000702C0E9002401202860D7E7BC00002088
:103F2000B8000020FC6A0020F86C00202DE9F04762
:103F30007D4D00262E704FF0030885F801804FF06C
:103F4000020985F80290EE7078A068607AA0A860F7
:103F50000820FFF7B5FFA86605F178040460A86E95
:103F600004F178074760A8788000FFF7A9FF686729
:103F70000660686F4660267084F801801620A07085
:103F8000E67070A0606071A0A06071A0E06073A096
:103F9000206174A0606175A0A06176A0E06177A047
:103FA000206278A0606279A0A0627AA0E0627BA023
:103FB00020637CA060637DA0A0637EA0E0637FA0FF
:103FC000206480A0606481A0A06482A0E06483A0DB
:103FD000206584A0606585A0A0655820FFF770FF6C
:103FE000A0660660A06E4660022004F1F00AA16E91
:103FF00041F820A0401CC0B21628F8D3E566A0788E
:104000008000FFF75DFF606779490160616F794863
:1040100048600220616F41F82060401CC0B2132844
:10402000F8D33E7087F8018087F80290FE703FA0B9
:10403000786071A0B8600820FFF742FFB8660020E2
:10404000B96E41F82060401CC0B20228F8D3FD666A
:10405000B8788000FFF734FF7867002069497A6FED
:1040600042F82010401CC0B20228F8D38AF8006041
:104070008AF8018004208AF802008AF8036062A0AE
:10408000CAF8040063A0CAF8080065A0CAF80C00CA
:1040900066A0CAF810001020FFF712FFCAF86800E7
:1040A0000020DAF8681041F82060401CC0B20428F3
:1040B000F7D3CAF86C409AF802008000FFF700FFBF
:1040C000CAF8740000205C49DAF8742042F8201025
:1040D000401CC0B20428F7D3584EB560E878297860
:1040E0001023401A4006010E2A227820FDF7A8FA74
:1040F0000024B06810230178214400EB810042685D
:104100006006010E0020FDF71BFBB0688078401EA2
:10411000A04203D0641CE4B2042CEAD3B1680120AD
:1041200081F87000BDE8F087F800002054657374D2
:104130004D6F646500000000576F726B43686F6FCE
:104140007365000068632D737230340041440000D1
:104150005A65726F5F5365740000000046544C5FEF
:104160003930000046544C5F313830004654525FBD
:10417000393000004654525F3138300046544C5FAD
:104180003133350046544C5F343500004654525F9D
:10419000313335004654525F3435000042544C5F91
:1041A000343500004254525F3435000052544C5FA5
:1041B000343500005254525F3435000052544C5F85
:1041C000393000005254525F3930000052544C5F75
:1041D000313335005254525F3133350052544C5F05
:1041E000313830005254525F3138300047530000AC
:1041F000C54900082D210008576F726B4D6F64652B
:10420000000000004154000857616C6B5F546573F7
:10421000740000004C6566745F576865656C00004B
:1042200052696768745F576865656C005475726E93
:104230005F54696D65000000654A000808000020B1
:10424000C16E002904D00021017003224270C170A8
:10425000704700002DE9F04700245A485A4DC07AB3
:104260006870062815D2DFE800F00306090C0F126B
:1042700000F0BAF80DE0FFF7AFFD0AE000F090FEA5
:1042800007E0FFF781FA04E0FFF7D0F801E000F063
:104290005FFB4D4FDFF834810C3F0026B8684FF0CC
:1042A000010990F8701007292AD2DFE801F0830491
:1042B000832D2A3C7B00FDF785F9B86810232A225C
:1042C000C1780078081A4006010E7820FDF7B8F989
:1042D000B86810230178214400EB81004268600631
:1042E000010E0220FDF72CFAB8688078401EA0422B
:1042F00003D0641CE4B2042CEAD3B86880F8706080
:1043000058E0FDF75FF955E0FDF75CF9B868416FDB
:10431000C07851F820008047687804284AD1B868EE
:1043200080F8709046E0B8F80600012802D0022814
:1043300014D015E0FDF746F9102325A20221142020
:10434000FDF7FEF9102324A204212420FDF7F8F93B
:10435000B8F80600401CA8F806002BE0FFF75CFB4D
:10436000B8F80600C11E07290ED2FDF72BF910235D
:1043700017A202211420FDF7E3F9102318A204214B
:104380002420FDF7DDF907E00A2805D3687818B97D
:10439000A8F8066000F0BEFAB8F80600401CA8F8BD
:1043A000060007E06978042907D0416FC07851F80A
:1043B000200080476E70BDE8F08788F8006080F8C4
:1043C0007090F7E7CC03002014000020C00000200C
:1043D00053617665000000004265696E6700000069
:1043E00053756363657373000449C868022802D279
:1043F000401CC86070470720FDF7D4B8C0000020FB
:104400000346012000E05843491EC9B2FBD2704761
:10441000F8B507460D461646721B0A210120594C75
:10442000FA2A04D8207002226270A17003E0207082
:1044300061706421A17053494FF07E520C314B786A
:104440005149062B65D2DFE803F064030830585C5D
:104450003868FCF79AF860605BE04869142805D872
:1044600010466168FBF7E2FE606014E0A0F1150100
:104470001D2907D86078FCF788F86168FBF7D6FE3D
:10448000606008E0322806D9A078FCF77EF8616801
:10449000FBF7CCFE60603046FCF777F807466168B2
:1044A000FCF7BCF835D8676033E08869142805D874
:1044B00010466168FBF70FFF606014E0A0F1150182
:1044C0001D2907D86078FCF760F86168FBF703FFE7
:1044D000606008E0322806D9A078FCF756F86168D9
:1044E000FBF7F9FE60602846FCF74FF80746616865
:1044F000FCF79EF80DD867600BE0A16881F87000AA
:1045000007E06068FCF746F83860FDF78FFE00F0C2
:104510000FFAFDF757F81027002104232A46084612
:104520000097FDF7D5F8102318A200212A20FDF7E7
:1045300007F905233246002150200097FDF7C8F8FF
:10454000A06804221023C06EC17802EB810142589A
:1045500002210020FDF7F4F8A0681023C17800EBD9
:104560008100042142680020FDF7EAF86068FCF74A
:1045700011F802460523062124200097FDF7A8F82C
:10458000F8BD000008000020C0000020746F00008B
:1045900070B504460B4D28684460E868844206D232
:1045A0002968686B091DBDE8704000F049BD2968A5
:1045B000286B091D00F044FDA86A844200D2AC6259
:1045C00070BD00005C00002070B5002908D00D46C9
:1045D0007DB14C2000F00EF9044634B1256309E0AA
:1045E000800000F007F90546F2E7284600F07CFD60
:1045F00000E00024204670BD70B5124E124D1CE044
:1046000000F042FE306820B1002401F07DF8A4B92A
:1046100001E00124F9E700F037FDF068C468201DCF
:1046200000F0EEFCA868401EA8606868401E686044
:1046300000F046FD204600F009F868680028DFD148
:1046400070BD0000CC0600205C00002010B50446C0
:10465000206B00F049FD2046BDE8104000F044BD4D
:104660004FF4C8410F48420706D0C01D20F0070094
:104670000C49411AC1F5C8410B4A10600023536030
:104680000144083921F00701103A11604B600B60BA
:104690000B1A436001604068906050604FF000402A
:1046A000D0607047F4060020B0000020044CFFF7F3
:1046B000A3FF20680128FAD900F044FDF7E70000C5
:1046C000F005002070B504461546002023180A5C4A
:1046D00083F834200A5C12B1401C1028F6D300265F
:1046E00084F84360082D00D30725E562201D00F003
:1046F000A4FC04F1180000F0A0FC2461C5F108003E
:10470000A0616462666484F8486070BD70B500247E
:10471000124D04EB840005EB800000F083FC641C68
:10472000082CF6D30D48A03000F07CFC0B48B430C8
:1047300000F078FC0948C83000F074FC0748DC3011
:1047400000F070FC0548F03000F06CFC03490448B0
:10475000A03101631431416370BD0000F0050020F9
:104760005C00002030B5134900E011460A6882421F
:10477000FBD34B685C18844203D1406818444860FE
:1047800008460D6844682318AB420DD1094B103B15
:104790001B689A4206D05268224442600A68126836
:1047A000026002E0036000E00260814200D0086025
:1047B00030BD0000B00000200748016B09680029E7
:1047C00005D0016BC968C9684968816270474FF0BC
:1047D000FF318162704700005C000020044840689F
:1047E000401C02D0FBF702FDFEE7FBF7FFFCFEE7F3
:1047F000940000202DE9F0410546002600F044FD1C
:10480000294F386808B9FFF72BFFF868054240D1F7
:1048100065B10835680709D005F00700C0F1080048
:104820000544680702D0FBF7E1FCFEE78DB378682A
:1048300085422ED81C4910310846046801E0214603
:1048400004466068A84202D220680028F7D1386880
:1048500084421ED00E680836206808606068411BDC
:10486000102909D96019420702D0FBF7BFFCFEE707
:1048700041606560FFF776FF61687868401A78608C
:10488000BA68904200D2B860F868014361600020C5
:10489000206000F039FF700702D0FBF7A7FCFEE7AD
:1048A0003046BDE8F0810000A000002020384FF025
:1048B0008073C36181610249416140F820297047DA
:1048C000DD47000810B54FF49F710320FDF76EFC23
:1048D0004FF4FA7000F042FCF0210120FDF77CFC5F
:1048E0008221BDE810400120FDF74ABC10B5B92176
:1048F0000420FDF75BFC142000F030FC4FF48671BF
:104900000220FDF769FCDC21BDE810400220FDF724
:1049100037BC000004480021418081800349012008
:10492000096881F870007047C00000201000002066
:10493000054810214180042181800449052009682F
:1049400081F8700070470000C000002010000020B7
:1049500070B50520FCF726FE104D114CA86890F8A4
:104960007010062916D0042914D0216A052902D016
:104970001E2909D00EE00321A180416FC07851F8B3
:10498000200038B1804705E0FFF746F8A96801200C
:1049900081F87000206A401C206270BD0800002071
:1049A000C0000020F8B50C4615461E468068FBF78F
:1049B000F1FDC2B20423294620460096FCF788FE8A
:1049C000F8BD000010B51F481E4C40780C3C012873
:1049D0000ED001221C49042802D0052808D105E088
:1049E00000200871A06880F8702001E0CA710A7187
:1049F0001023002214211548FFF7D4FF10230022B2
:104A00003C211348FFF7CEFF102303220021114859
:104A1000FFF7C8FF1023062200210F48FFF7C2FF4F
:104A20001023032250210D48FFF7BCFF102306225C
:104A300050210B48FFF7B6FFA168032081F87000F2
:104A400010BD000014000020D8020020D803002070
:104A500000040020280400205004002078040020D6
:104A6000A00400202DE9F041FE4D0222A868C17883
:104A7000002920D001296FD002296ED0032927D127
:104A800080F87020C06E40F6B832C178F64800F168
:104A90002C031C1D251D2E1D162919D2DFE801F03F
:104AA0001818FCFBFAF9F8F7F6F5F4F3F2F1F0EF69
:104AB000EEEDECEBEAE9EB49EC4C0C3149780129DD
:104AC00008D0042904D1012180F87010E170217010
:104AD000BDE8F081062180F87010E378042673B3F6
:104AE000C06EC078162844D2DFE800F04343430B81
:104AF0000D101215171A1D2023262A2D3033383B8E
:104B00003E41227035E00320207032E0267030E014
:104B1000052020702DE021702BE00720207028E078
:104B20000820207025E00920207022E00A20207053
:104B30001FE00B2020701CE00C20207019E01CE00E
:104B40000D20207015E00E20207012E00F20207044
:104B50000FE0102020700CE022E0DBE0112020703C
:104B600007E01220207004E01320207001E01520DF
:104B70002070FCF727FD0020E0701023BCA200216C
:104B80002A20FCF7DDFDA8681023C06EC17806EB73
:104B900081014258BDE8F04102212A20FCF7D0BD36
:104BA00080F87020C06EB04DC17805F1440005F169
:104BB0004C0305F154046035162989D2DFE801F071
:104BC0000B0B0C141A20272E343A41484E5571789D
:104BD0007F868D949BA27BE7BDE8F041A2483222FC
:104BE00000216C30FFF714BCBDE8F04132220021F7
:104BF000FFF70EBCBDE8F04132220021FFF708BCF0
:104C0000BDE8F041322200211846FFF701BCBDE8A3
:104C1000F041322200211846FFF7FABBBDE8F0410F
:104C200032220021FFF7F4BBBDE8F041322200211F
:104C3000FFF7EEBBBDE8F041322200211846FFF736
:104C4000E7BBBDE8F041322200211846FFF7E0BB88
:104C5000BDE8F04132220021FFF7DABBBDE8F041A8
:104C6000322200211846FFF7D3BB32220021204612
:104C700013E08BE184E17DE176E16FE168E161E1E0
:104C80005AE153E14BE143E13BE133E12BE123E125
:104C90001BE113E10CE105E1E2E0BDE8F041FFF7C3
:104CA000B7BB2846BDE8F04132220021FFF7B0BB78
:104CB0002046BDE8F04132220021FFF7A9BB28467B
:104CC000BDE8F04132220021FFF7A2BB2046BDE83B
:104CD000F04132220021FFF79BBB2846BDE8F0419E
:104CE00032220021FFF794BB2046BDE8F04132227A
:104CF0000021FFF78DBB2846BDE8F041322200219C
:104D0000FFF786BBBDE8F0415748322200216430EE
:104D1000FFF77EBB80F87020C06E534DC17805F15F
:104D2000480005F1500305F158045C351629BFF41D
:104D300052AFDFE801F00B0B0C141A20272E343A87
:104D400041484E555C636A71787F868DC0E6BDE848
:104D5000F0414548322200217030FFF759BBBDE8D1
:104D6000F04132220021FFF753BBBDE8F04132226F
:104D70000021FFF74DBBBDE8F0413222002118466B
:104D8000FFF746BBBDE8F041322200211846FFF78D
:104D90003FBBBDE8F04132220021FFF739BBBDE83F
:104DA000F04132220021FFF733BBBDE8F04132224F
:104DB00000211846FFF72CBBBDE8F041322200214C
:104DC0001846FFF725BBBDE8F04132220021FFF76E
:104DD0001FBBBDE8F041322200211846FFF718BB87
:104DE0002046BDE8F04132220021FFF711BB2846E2
:104DF000BDE8F04132220021FFF70ABB2046BDE8A2
:104E0000F04132220021FFF703BB2846BDE8F04104
:104E100032220021FFF7FCBA2046BDE8F0413222E1
:104E20000021FFF7F5BA2846BDE8F0413222002103
:104E3000FFF7EEBA2046BDE8F04132220021FFF72D
:104E4000E7BA2846BDE8F04132220021FFF7E0BA78
:104E5000BDE8F0410448322200216830FFF7D8BA9B
:104E60000AE00000080000201C030020D8020020F7
:104E700054657374696E67004FF4FA614160816034
:104E80008161C161C1600162416241618162C1624F
:104E9000016341638163C163FDF7C8F9BDE8F04177
:104EA000FFF746BDBDE8F041C821001DFFF7B0BACD
:104EB000BDE8F041C8213948FFF7AABABDE8F04182
:104EC0003648C8211030FFF7A3BABDE8F041334897
:104ED000C8211430FFF79CBABDE8F0412F48C82123
:104EE000001DFFF795BABDE8F0412C48C8210830F5
:104EF000FFF78EBABDE8F0412848C8211830FFF707
:104F000087BABDE8F0412548C8211C30FFF780BAB8
:104F1000BDE8F0412148C8210C30FFF779BABDE85F
:104F2000F0411E48C8212030FFF772BABDE8F041B9
:104F3000C8211846FFF76CBABDE8F041C8211846F1
:104F4000FFF766BA2046BDE8F041C821FFF760BA16
:104F50002046BDE8F041C821FFF75ABA2846BDE80F
:104F6000F041C821FFF754BA2846BDE8F041C821F6
:104F7000FFF74EBA3046BDE8F041C821FFF748BA06
:104F80003046BDE8F041C821FFF742BABDE8F04124
:104F90000248C8213430FFF73BBA00002403002048
:104FA00010B50220FCF7FEFA1348144C806890F804
:104FB0007010022918D0062916D0042914D0C178FF
:104FC00051B1491ECAB2C27001788A4204D2491E48
:104FD00001704178491E4170012180F87010A18054
:104FE0006069401C606110BD416FC07851F82000BD
:104FF0000028F5D08047F3E708000020C00000201B
:105000000169D0E901329A60D0E901235A604A6807
:10501000824201D182684A60002202610868401E13
:105020000860704700F1080141604FF0FF32826074
:10503000C16001610021016070470021016170477A
:1050400030B50C68621C02D000F1080202E002696F
:1050500004E01A4653681D68A542FAD953684B60AC
:1050600099608A60516008610168491C016030BD27
:1050700042684A6093688B609368596091600861E8
:105080000168491C0160704710B5FBF7AFF80A488A
:105090004168491C4160BFF34F8FBFF36F8F406879
:1050A000012807D10548006810F0FF0F02D0FBF778
:1050B0009DF8FEE710BD00009400002004ED00E024
:1050C00010B508494868002807D0401E48600028ED
:1050D00006D1BDE81040FBF790B8FBF787F8FEE774
:1050E00010BD00009400002070B500281DD00838C5
:1050F00004460E4D6068E968084202D1FBF776F875
:10510000FEE7226812B1FBF771F8FEE788436060A2
:1051100000F0BAF860686968084468602046FFF7E4
:1051200021FBBDE8704000F0EFBA70BDA000002088
:105130004FF0E02002494161072101617047000002
:105140003F19010004494FF080500860BFF34F8FB2
:10515000BFF36F8F7047000004ED00E070B50246AA
:105160000020002A1BD0114CE06A10B1FBF73EF87A
:10517000FEE700F089F8E06885182068001DFFF759
:105180003FFF38B9206890F82C1001208840216931
:10519000814321612846FFF7FBF900F0B5FA0028AA
:1051A00003D1BDE87040FFF7CDBF70BD5C000020AB
:1051B00070B505460C460022002D06D044B11C4EA9
:1051C000F06A40B1FBF712F8FEE7FBF70FF8FEE7D5
:1051D000FBF70CF8FEE700F057F8F0682B681C446A
:1051E000834205D9A34208D9844206D9012204E0AA
:1051F000A34201D8844200D901222C607AB13068E0
:10520000001DFFF7FDFE38B9306890F82C10012022
:1052100088403169814331612046FFF7B9F900F0D8
:1052200073FA002803D1BDE87040FFF78BBF70BD53
:105230005C0000201FB500240094019402942346D2
:1052400080220DA10E48039400F07CF9012804D0BF
:1052500000280FD1FAF7CAFFFEE7FAF7C7FF09489F
:105260004FF0FF31816201214161C460BDE81F4000
:1052700000F02EB91FBD000049444C45000000005D
:10528000AD4600085C0000200248C16A491CC162AA
:10529000704700005C00002010B5134AD06A002857
:1052A00002D00120D06110BD0020D0611069B0FA99
:1052B00080F0C0F11F000D4900EB800051F8203054
:1052C00073B101EB800041684968416000F1080357
:1052D000994201D1496841604068C068106010BDC2
:1052E000FAF784FFFEE700005C000020F0050020D4
:1052F00010B5294C30380928626E616D4AD2DFE85A
:1053000000F0050F19232C35393D43000021012001
:10531000FCF7B6FF0021BDE810400120FDF704B8FE
:1053200011460120FCF7ACFFA16EBDE81040012042
:10533000FCF7FABF11460220FCF7A2FFA16EBDE800
:1053400010400220FCF7F0BF0220FCF799FFA16D8E
:10535000BDE810400120FCF7E7BF0120FCF790FFFB
:10536000A16DBDE810400220FCF7DEBFBDE8104093
:10537000FFF7BCBABDE81040FFF7A4BAAA21BDE808
:1053800010400220FCF7FCBE5A21BDE8104002206C
:10539000FCF7F6BE10BD00001C03002030B587B03E
:1053A000012144F20400FCF73DFA4FF40070ADF81F
:1053B000180003248DF81A4018208DF81B001E4D8C
:1053C00006A92846FBF7A2FE2915ADF818100421FE
:1053D0008DF81B1006A92846FBF798FE25208DF8AE
:1053E00004008DF805408DF8064001208DF8070077
:1053F00001A8FCF79BF84FF4165002900020ADF87E
:105400000C00ADF80E00ADF81000ADF814000C2043
:10541000ADF81200094C02A92046FCF715FE012246
:1054200040F225512046FCF7F4FD01212046FCF70F
:10543000BDFD07B030BD000000080140003801404C
:1054400070B51B481A49012480680C310223C278C8
:10545000184D4978002A0AD0012A07D180F8703007
:10546000012919D0042901D180F8704070BD80F85D
:105470007030012904D00429F8D180F8704070BD43
:10548000FCF7A0F8002110230BA20846FCF758F9FE
:105490000020E871287170BDFCF794F800211023FA
:1054A00008A20846FCF74CF9EC712C7170BD0000A5
:1054B00008000020D802002043686F6F73655465B0
:1054C0007374000043686F6F7365576F726B0000F1
:1054D0001CB5194908780190FF20087008780090E1
:1054E0009DF80000154A00F0100010700720906031
:1054F00006E09068401E90609DF80000400000901B
:105500009DF800000006F4D4107A000200F4E06078
:105510009060019808700A48016841F470010160C8
:10552000016841F070410160FFF702FE0020506009
:10553000FAF72AFE00201CBD00E400E094000020E1
:1055400020ED00E02DE9FF4F81B08246DDE90E59E4
:10555000109990469B46BAF1000F04D0082D05D350
:10556000FAF744FEFEE7FAF741FEFEE74046FFF792
:105570002BF804462E4F7CB3216BA8F1010001EB00
:10558000800020F00706700702D0FAF72FFEFEE732
:10559000CDF800802A462046119B0299FFF792F829
:1055A0005A4651463046FFF781F92060B9F1000FA5
:1055B00001D0C9F80040FFF767FDB868401CB8602B
:1055C000386810B1786940B10CE03C60B8680128D7
:1055D00008D1FFF79BF805E019E03868C06AA842D7
:1055E00000D83C60786A401C7862E06A01213A6920
:1055F00081401143396100EB80010E4800EB8100CE
:10560000211DFFF735FD0124FFF75AFD01E04FF0A2
:10561000FF34012C07D1786928B13868C06AA842E4
:1056200001D2FFF78FFD05B02046BDE8F08F0000E6
:105630005C000020F00500200148C06870470000B1
:105640005C0000202DE9F04100252D4FF86A00286C
:1056500008D0B869401CB861F86900B10125284636
:10566000BDE8F081F868401CF860FE6876B9386BD8
:10567000006810B1FAF7BAFDFEE7386B796B396351
:105680007863386A401C3862FFF796F8B86ADFF82A
:10569000748086420DD3386B006838B1386BC068AF
:1056A000C468606886420ED2B86202E04FF0FF30F4
:1056B000B8623868C06A00EB800058F82000012802
:1056C000CAD90125C8E7201DFFF79AFCA06A18B1C6
:1056D00004F11800FFF794FCE06A01213A69814067
:1056E0001143396100EB800008EB8000211DFFF7BA
:1056F000BFFCE06A3968C96A8842CCD30125CAE791
:105700005C000020F00500202DE9F0410027284D25
:10571000E86A002807D0FFF7B7FCE86A401EE86295
:10572000E86A18B13EE0FAF761FDFEE7A868C8B381
:10573000DFF8808001261EE0D8F80C00C46804F170
:105740001800FFF75DFC201DFFF75AFCE06A2A698C
:1057500006FA00F111432961164900EB8000C839AF
:1057600001EB8000211DFFF783FCE06A2968C96A0C
:10577000884200D3EE61D8F800000028DCD1A86987
:1057800038B909E0FFF75EFF00B1EE61A869401E7D
:10579000A861A8690028F5D1E869012802D101278C
:1057A000FFF7D0FCFFF78CFC3846BDE8F081000025
:1057B0005C000020B806002000000000000000008F
:1057C000002F000000000700070000147F147F1462
:1057D00000242A7F2A1200626408132300364955E8
:1057E000225000000503000000001C2241000000C0
:1057F00041221C000014083E08140008083E080856
:10580000000000A0600000080808080800006060B0
:105810000000002010080402003E5149453E0000EF
:10582000427F4000004261514946002141454B31D1
:10583000001814127F10002745454539003C4A499D
:10584000493000017109050300364949493600060F
:105850004949291E00003636000000005636000077
:1058600000081422410000141414141400004122F2
:10587000140800020151090600324959513E007CCA
:105880001211127C007F49494936003E41414122B4
:10589000007F4141221C007F49494941007F09099D
:1058A0000901003E4149497A007F0808087F00004D
:1058B000417F4100002040413F01007F0814224108
:1058C000007F40404040007F020C027F007F0408C0
:1058D000107F003E4141413E007F09090906003E1C
:1058E0004151215E007F0919294600464949493145
:1058F0000001017F0101003F4040403F001F204068
:10590000201F003F4038403F006314081463000725
:105910000870080700615149454300007F4141007C
:1059200000552A552A55000041417F00000402011C
:1059300002040040404040400000010204000020FA
:1059400054545478007F4844443800384444442038
:1059500000384444487F00385454541800087E09E5
:1059600001020018A4A4A47C007F080404780000AD
:10597000447D4000004080847D00007F102844006A
:105980000000417F4000007C04180478007C08047B
:10599000047800384444443800FC242424180018B7
:1059A000242418FC007C08040408004854545420A3
:1059B00000043F444020003C4040207C001C20402C
:1059C000201C003C4030403C004428102844001C6F
:1059D000A0A0A07C004464544C4414141414141467
:1059E00000000000000000000000000000000000B7
:1059F000000000F80000000000000033300000004C
:105A000000100C06100C0600000000000000000052
:105A100040C07840C0784000043F04043F040400C4
:105A2000007088FC08300000001820FF211E0000D4
:105A3000F008F000E018000000211C031E211E00E9
:105A400000F00888700000001E212324192721106F
:105A500010160E0000000000000000000000000012
:105A6000000000E0180402000000000718204000B9
:105A700000020418E00000000040201807000000A9
:105A8000404080F0804040000202010F010202000D
:105A9000000000F0000000000101011F01010100F1
:105AA000000000000000000080B070000000000056
:105AB00000000000000000000001010101010101DF
:105AC0000000000000000000003030000000000076
:105AD000000000008060180400601806010000004B
