:03000000020100FA
:1001000012016112014D74001201307401120130AC
:10011000740212013074031201307404120130743D
:10012000051201307406120130740712013080D6B6
:1001300012017012013A120170224488F5C50000C4
:100140000000E5C530E4FB53C5EFE5C62274FFF5BA
:1001500090F591F59275C60075C58074021201780C
:100160002275985A75892074FBF58DF58BD28E22F5
:100170003099FDC299F59922FAE4F8F9D8FED9FC34
:03018000DAFA2286
:00000001FF
