:03000000020100FA
:1001000012015C12014D74001201307401120130B1
:10011000740212013074031201307404120130743D
:10012000051201307406120130740712013080D6B6
:1001300012016B12013A12016B224488F5BC0000D7
:100140000000E5BC30E4FB53BCEFE5BD22759DFF2C
:1001500075BD0075BC8074021201732275985A75C2
:10016000892074FBF58DF58BD28E223099FDC299D2
:0E017000F59922FAE4F8F9D8FED9FCDAFA2261
:00000001FF
